{
  "_format": "hh-sol-artifact-1",
  "contractName": "SocToken",
  "sourceName": "contracts/SocToken.sol",
  "abi": [
    {
      "inputs": [],
      "stateMutability": "nonpayable",
      "type": "constructor"
    },
    {
      "inputs": [],
      "name": "CheckpointUnorderedInsertion",
      "type": "error"
    },
    {
      "inputs": [],
      "name": "ECDSAInvalidSignature",
      "type": "error"
    },
    {
      "inputs": [
        {
          "internalType": "uint256",
          "name": "length",
          "type": "uint256"
        }
      ],
      "name": "ECDSAInvalidSignatureLength",
      "type": "error"
    },
    {
      "inputs": [
        {
          "internalType": "bytes32",
          "name": "s",
          "type": "bytes32"
        }
      ],
      "name": "ECDSAInvalidSignatureS",
      "type": "error"
    },
    {
      "inputs": [
        {
          "internalType": "uint256",
          "name": "increasedSupply",
          "type": "uint256"
        },
        {
          "internalType": "uint256",
          "name": "cap",
          "type": "uint256"
        }
      ],
      "name": "ERC20ExceededSafeSupply",
      "type": "error"
    },
    {
      "inputs": [
        {
          "internalType": "address",
          "name": "spender",
          "type": "address"
        },
        {
          "internalType": "uint256",
          "name": "allowance",
          "type": "uint256"
        },
        {
          "internalType": "uint256",
          "name": "needed",
          "type": "uint256"
        }
      ],
      "name": "ERC20InsufficientAllowance",
      "type": "error"
    },
    {
      "inputs": [
        {
          "internalType": "address",
          "name": "sender",
          "type": "address"
        },
        {
          "internalType": "uint256",
          "name": "balance",
          "type": "uint256"
        },
        {
          "internalType": "uint256",
          "name": "needed",
          "type": "uint256"
        }
      ],
      "name": "ERC20InsufficientBalance",
      "type": "error"
    },
    {
      "inputs": [
        {
          "internalType": "address",
          "name": "approver",
          "type": "address"
        }
      ],
      "name": "ERC20InvalidApprover",
      "type": "error"
    },
    {
      "inputs": [
        {
          "internalType": "address",
          "name": "receiver",
          "type": "address"
        }
      ],
      "name": "ERC20InvalidReceiver",
      "type": "error"
    },
    {
      "inputs": [
        {
          "internalType": "address",
          "name": "sender",
          "type": "address"
        }
      ],
      "name": "ERC20InvalidSender",
      "type": "error"
    },
    {
      "inputs": [
        {
          "internalType": "address",
          "name": "spender",
          "type": "address"
        }
      ],
      "name": "ERC20InvalidSpender",
      "type": "error"
    },
    {
      "inputs": [
        {
          "internalType": "uint256",
          "name": "deadline",
          "type": "uint256"
        }
      ],
      "name": "ERC2612ExpiredSignature",
      "type": "error"
    },
    {
      "inputs": [
        {
          "internalType": "address",
          "name": "signer",
          "type": "address"
        },
        {
          "internalType": "address",
          "name": "owner",
          "type": "address"
        }
      ],
      "name": "ERC2612InvalidSigner",
      "type": "error"
    },
    {
      "inputs": [
        {
          "internalType": "uint256",
          "name": "timepoint",
          "type": "uint256"
        },
        {
          "internalType": "uint48",
          "name": "clock",
          "type": "uint48"
        }
      ],
      "name": "ERC5805FutureLookup",
      "type": "error"
    },
    {
      "inputs": [],
      "name": "ERC6372InconsistentClock",
      "type": "error"
    },
    {
      "inputs": [
        {
          "internalType": "address",
          "name": "account",
          "type": "address"
        },
        {
          "internalType": "uint256",
          "name": "currentNonce",
          "type": "uint256"
        }
      ],
      "name": "InvalidAccountNonce",
      "type": "error"
    },
    {
      "inputs": [],
      "name": "InvalidShortString",
      "type": "error"
    },
    {
      "inputs": [
        {
          "internalType": "address",
          "name": "owner",
          "type": "address"
        }
      ],
      "name": "OwnableInvalidOwner",
      "type": "error"
    },
    {
      "inputs": [
        {
          "internalType": "address",
          "name": "account",
          "type": "address"
        }
      ],
      "name": "OwnableUnauthorizedAccount",
      "type": "error"
    },
    {
      "inputs": [
        {
          "internalType": "uint8",
          "name": "bits",
          "type": "uint8"
        },
        {
          "internalType": "uint256",
          "name": "value",
          "type": "uint256"
        }
      ],
      "name": "SafeCastOverflowedUintDowncast",
      "type": "error"
    },
    {
      "inputs": [
        {
          "internalType": "string",
          "name": "str",
          "type": "string"
        }
      ],
      "name": "StringTooLong",
      "type": "error"
    },
    {
      "inputs": [
        {
          "internalType": "uint256",
          "name": "expiry",
          "type": "uint256"
        }
      ],
      "name": "VotesExpiredSignature",
      "type": "error"
    },
    {
      "anonymous": false,
      "inputs": [
        {
          "indexed": true,
          "internalType": "address",
          "name": "owner",
          "type": "address"
        },
        {
          "indexed": true,
          "internalType": "address",
          "name": "spender",
          "type": "address"
        },
        {
          "indexed": false,
          "internalType": "uint256",
          "name": "value",
          "type": "uint256"
        }
      ],
      "name": "Approval",
      "type": "event"
    },
    {
      "anonymous": false,
      "inputs": [
        {
          "indexed": true,
          "internalType": "address",
          "name": "delegator",
          "type": "address"
        },
        {
          "indexed": true,
          "internalType": "address",
          "name": "fromDelegate",
          "type": "address"
        },
        {
          "indexed": true,
          "internalType": "address",
          "name": "toDelegate",
          "type": "address"
        }
      ],
      "name": "DelegateChanged",
      "type": "event"
    },
    {
      "anonymous": false,
      "inputs": [
        {
          "indexed": true,
          "internalType": "address",
          "name": "delegate",
          "type": "address"
        },
        {
          "indexed": false,
          "internalType": "uint256",
          "name": "previousVotes",
          "type": "uint256"
        },
        {
          "indexed": false,
          "internalType": "uint256",
          "name": "newVotes",
          "type": "uint256"
        }
      ],
      "name": "DelegateVotesChanged",
      "type": "event"
    },
    {
      "anonymous": false,
      "inputs": [],
      "name": "EIP712DomainChanged",
      "type": "event"
    },
    {
      "anonymous": false,
      "inputs": [
        {
          "indexed": true,
          "internalType": "address",
          "name": "author",
          "type": "address"
        },
        {
          "indexed": false,
          "internalType": "uint256",
          "name": "postId",
          "type": "uint256"
        }
      ],
      "name": "LikeRewarded",
      "type": "event"
    },
    {
      "anonymous": false,
      "inputs": [
        {
          "indexed": true,
          "internalType": "address",
          "name": "previousOwner",
          "type": "address"
        },
        {
          "indexed": true,
          "internalType": "address",
          "name": "newOwner",
          "type": "address"
        }
      ],
      "name": "OwnershipTransferred",
      "type": "event"
    },
    {
      "anonymous": false,
      "inputs": [
        {
          "indexed": true,
          "internalType": "address",
          "name": "from",
          "type": "address"
        },
        {
          "indexed": true,
          "internalType": "address",
          "name": "to",
          "type": "address"
        },
        {
          "indexed": false,
          "internalType": "uint256",
          "name": "amount",
          "type": "uint256"
        }
      ],
      "name": "Tipped",
      "type": "event"
    },
    {
      "anonymous": false,
      "inputs": [
        {
          "indexed": true,
          "internalType": "address",
          "name": "from",
          "type": "address"
        },
        {
          "indexed": true,
          "internalType": "address",
          "name": "to",
          "type": "address"
        },
        {
          "indexed": false,
          "internalType": "uint256",
          "name": "value",
          "type": "uint256"
        }
      ],
      "name": "Transfer",
      "type": "event"
    },
    {
      "inputs": [],
      "name": "CLOCK_MODE",
      "outputs": [
        {
          "internalType": "string",
          "name": "",
          "type": "string"
        }
      ],
      "stateMutability": "view",
      "type": "function"
    },
    {
      "inputs": [],
      "name": "DOMAIN_SEPARATOR",
      "outputs": [
        {
          "internalType": "bytes32",
          "name": "",
          "type": "bytes32"
        }
      ],
      "stateMutability": "view",
      "type": "function"
    },
    {
      "inputs": [],
      "name": "LIKE_REWARD",
      "outputs": [
        {
          "internalType": "uint256",
          "name": "",
          "type": "uint256"
        }
      ],
      "stateMutability": "view",
      "type": "function"
    },
    {
      "inputs": [],
      "name": "MAX_SUPPLY",
      "outputs": [
        {
          "internalType": "uint256",
          "name": "",
          "type": "uint256"
        }
      ],
      "stateMutability": "view",
      "type": "function"
    },
    {
      "inputs": [],
      "name": "POST_REWARD",
      "outputs": [
        {
          "internalType": "uint256",
          "name": "",
          "type": "uint256"
        }
      ],
      "stateMutability": "view",
      "type": "function"
    },
    {
      "inputs": [
        {
          "internalType": "address",
          "name": "owner",
          "type": "address"
        },
        {
          "internalType": "address",
          "name": "spender",
          "type": "address"
        }
      ],
      "name": "allowance",
      "outputs": [
        {
          "internalType": "uint256",
          "name": "",
          "type": "uint256"
        }
      ],
      "stateMutability": "view",
      "type": "function"
    },
    {
      "inputs": [
        {
          "internalType": "address",
          "name": "spender",
          "type": "address"
        },
        {
          "internalType": "uint256",
          "name": "value",
          "type": "uint256"
        }
      ],
      "name": "approve",
      "outputs": [
        {
          "internalType": "bool",
          "name": "",
          "type": "bool"
        }
      ],
      "stateMutability": "nonpayable",
      "type": "function"
    },
    {
      "inputs": [
        {
          "internalType": "address",
          "name": "account",
          "type": "address"
        }
      ],
      "name": "balanceOf",
      "outputs": [
        {
          "internalType": "uint256",
          "name": "",
          "type": "uint256"
        }
      ],
      "stateMutability": "view",
      "type": "function"
    },
    {
      "inputs": [
        {
          "internalType": "address",
          "name": "account",
          "type": "address"
        },
        {
          "internalType": "uint32",
          "name": "pos",
          "type": "uint32"
        }
      ],
      "name": "checkpoints",
      "outputs": [
        {
          "components": [
            {
              "internalType": "uint48",
              "name": "_key",
              "type": "uint48"
            },
            {
              "internalType": "uint208",
              "name": "_value",
              "type": "uint208"
            }
          ],
          "internalType": "struct Checkpoints.Checkpoint208",
          "name": "",
          "type": "tuple"
        }
      ],
      "stateMutability": "view",
      "type": "function"
    },
    {
      "inputs": [],
      "name": "clock",
      "outputs": [
        {
          "internalType": "uint48",
          "name": "",
          "type": "uint48"
        }
      ],
      "stateMutability": "view",
      "type": "function"
    },
    {
      "inputs": [],
      "name": "decimals",
      "outputs": [
        {
          "internalType": "uint8",
          "name": "",
          "type": "uint8"
        }
      ],
      "stateMutability": "view",
      "type": "function"
    },
    {
      "inputs": [
        {
          "internalType": "address",
          "name": "delegatee",
          "type": "address"
        }
      ],
      "name": "delegate",
      "outputs": [],
      "stateMutability": "nonpayable",
      "type": "function"
    },
    {
      "inputs": [
        {
          "internalType": "address",
          "name": "delegatee",
          "type": "address"
        },
        {
          "internalType": "uint256",
          "name": "nonce",
          "type": "uint256"
        },
        {
          "internalType": "uint256",
          "name": "expiry",
          "type": "uint256"
        },
        {
          "internalType": "uint8",
          "name": "v",
          "type": "uint8"
        },
        {
          "internalType": "bytes32",
          "name": "r",
          "type": "bytes32"
        },
        {
          "internalType": "bytes32",
          "name": "s",
          "type": "bytes32"
        }
      ],
      "name": "delegateBySig",
      "outputs": [],
      "stateMutability": "nonpayable",
      "type": "function"
    },
    {
      "inputs": [
        {
          "internalType": "address",
          "name": "account",
          "type": "address"
        }
      ],
      "name": "delegates",
      "outputs": [
        {
          "internalType": "address",
          "name": "",
          "type": "address"
        }
      ],
      "stateMutability": "view",
      "type": "function"
    },
    {
      "inputs": [],
      "name": "eip712Domain",
      "outputs": [
        {
          "internalType": "bytes1",
          "name": "fields",
          "type": "bytes1"
        },
        {
          "internalType": "string",
          "name": "name",
          "type": "string"
        },
        {
          "internalType": "string",
          "name": "version",
          "type": "string"
        },
        {
          "internalType": "uint256",
          "name": "chainId",
          "type": "uint256"
        },
        {
          "internalType": "address",
          "name": "verifyingContract",
          "type": "address"
        },
        {
          "internalType": "bytes32",
          "name": "salt",
          "type": "bytes32"
        },
        {
          "internalType": "uint256[]",
          "name": "extensions",
          "type": "uint256[]"
        }
      ],
      "stateMutability": "view",
      "type": "function"
    },
    {
      "inputs": [
        {
          "internalType": "uint256",
          "name": "timepoint",
          "type": "uint256"
        }
      ],
      "name": "getPastTotalSupply",
      "outputs": [
        {
          "internalType": "uint256",
          "name": "",
          "type": "uint256"
        }
      ],
      "stateMutability": "view",
      "type": "function"
    },
    {
      "inputs": [
        {
          "internalType": "address",
          "name": "account",
          "type": "address"
        },
        {
          "internalType": "uint256",
          "name": "timepoint",
          "type": "uint256"
        }
      ],
      "name": "getPastVotes",
      "outputs": [
        {
          "internalType": "uint256",
          "name": "",
          "type": "uint256"
        }
      ],
      "stateMutability": "view",
      "type": "function"
    },
    {
      "inputs": [
        {
          "internalType": "address",
          "name": "account",
          "type": "address"
        }
      ],
      "name": "getVotes",
      "outputs": [
        {
          "internalType": "uint256",
          "name": "",
          "type": "uint256"
        }
      ],
      "stateMutability": "view",
      "type": "function"
    },
    {
      "inputs": [
        {
          "internalType": "address",
          "name": "",
          "type": "address"
        }
      ],
      "name": "lastPostRewardDay",
      "outputs": [
        {
          "internalType": "uint256",
          "name": "",
          "type": "uint256"
        }
      ],
      "stateMutability": "view",
      "type": "function"
    },
    {
      "inputs": [],
      "name": "name",
      "outputs": [
        {
          "internalType": "string",
          "name": "",
          "type": "string"
        }
      ],
      "stateMutability": "view",
      "type": "function"
    },
    {
      "inputs": [
        {
          "internalType": "address",
          "name": "owner",
          "type": "address"
        }
      ],
      "name": "nonces",
      "outputs": [
        {
          "internalType": "uint256",
          "name": "",
          "type": "uint256"
        }
      ],
      "stateMutability": "view",
      "type": "function"
    },
    {
      "inputs": [
        {
          "internalType": "address",
          "name": "account",
          "type": "address"
        }
      ],
      "name": "numCheckpoints",
      "outputs": [
        {
          "internalType": "uint32",
          "name": "",
          "type": "uint32"
        }
      ],
      "stateMutability": "view",
      "type": "function"
    },
    {
      "inputs": [],
      "name": "owner",
      "outputs": [
        {
          "internalType": "address",
          "name": "",
          "type": "address"
        }
      ],
      "stateMutability": "view",
      "type": "function"
    },
    {
      "inputs": [
        {
          "internalType": "address",
          "name": "owner",
          "type": "address"
        },
        {
          "internalType": "address",
          "name": "spender",
          "type": "address"
        },
        {
          "internalType": "uint256",
          "name": "value",
          "type": "uint256"
        },
        {
          "internalType": "uint256",
          "name": "deadline",
          "type": "uint256"
        },
        {
          "internalType": "uint8",
          "name": "v",
          "type": "uint8"
        },
        {
          "internalType": "bytes32",
          "name": "r",
          "type": "bytes32"
        },
        {
          "internalType": "bytes32",
          "name": "s",
          "type": "bytes32"
        }
      ],
      "name": "permit",
      "outputs": [],
      "stateMutability": "nonpayable",
      "type": "function"
    },
    {
      "inputs": [],
      "name": "renounceOwnership",
      "outputs": [],
      "stateMutability": "nonpayable",
      "type": "function"
    },
    {
      "inputs": [
        {
          "internalType": "address",
          "name": "_author",
          "type": "address"
        },
        {
          "internalType": "uint256",
          "name": "_postId",
          "type": "uint256"
        }
      ],
      "name": "rewardLike",
      "outputs": [],
      "stateMutability": "nonpayable",
      "type": "function"
    },
    {
      "inputs": [
        {
          "internalType": "address",
          "name": "_author",
          "type": "address"
        }
      ],
      "name": "rewardPost",
      "outputs": [],
      "stateMutability": "nonpayable",
      "type": "function"
    },
    {
      "inputs": [
        {
          "internalType": "address",
          "name": "_addr",
          "type": "address"
        }
      ],
      "name": "setSocialContract",
      "outputs": [],
      "stateMutability": "nonpayable",
      "type": "function"
    },
    {
      "inputs": [],
      "name": "socialContract",
      "outputs": [
        {
          "internalType": "address",
          "name": "",
          "type": "address"
        }
      ],
      "stateMutability": "view",
      "type": "function"
    },
    {
      "inputs": [],
      "name": "symbol",
      "outputs": [
        {
          "internalType": "string",
          "name": "",
          "type": "string"
        }
      ],
      "stateMutability": "view",
      "type": "function"
    },
    {
      "inputs": [
        {
          "internalType": "address",
          "name": "_to",
          "type": "address"
        },
        {
          "internalType": "uint256",
          "name": "_amount",
          "type": "uint256"
        }
      ],
      "name": "tip",
      "outputs": [],
      "stateMutability": "nonpayable",
      "type": "function"
    },
    {
      "inputs": [],
      "name": "totalSupply",
      "outputs": [
        {
          "internalType": "uint256",
          "name": "",
          "type": "uint256"
        }
      ],
      "stateMutability": "view",
      "type": "function"
    },
    {
      "inputs": [
        {
          "internalType": "address",
          "name": "to",
          "type": "address"
        },
        {
          "internalType": "uint256",
          "name": "value",
          "type": "uint256"
        }
      ],
      "name": "transfer",
      "outputs": [
        {
          "internalType": "bool",
          "name": "",
          "type": "bool"
        }
      ],
      "stateMutability": "nonpayable",
      "type": "function"
    },
    {
      "inputs": [
        {
          "internalType": "address",
          "name": "from",
          "type": "address"
        },
        {
          "internalType": "address",
          "name": "to",
          "type": "address"
        },
        {
          "internalType": "uint256",
          "name": "value",
          "type": "uint256"
        }
      ],
      "name": "transferFrom",
      "outputs": [
        {
          "internalType": "bool",
          "name": "",
          "type": "bool"
        }
      ],
      "stateMutability": "nonpayable",
      "type": "function"
    },
    {
      "inputs": [
        {
          "internalType": "address",
          "name": "newOwner",
          "type": "address"
        }
      ],
      "name": "transferOwnership",
      "outputs": [],
      "stateMutability": "nonpayable",
      "type": "function"
    }
  ],
  "bytecode": "0x610160604052348015610010575f5ffd5b50336040518060400160405280600981526020016829b7b1902a37b5b2b760b91b81525080604051806040016040528060018152602001603160f81b8152506040518060400160405280600981526020016829b7b1902a37b5b2b760b91b81525060405180604001604052806003815260200162534f4360e81b815250816003908161009c9190610936565b5060046100a98282610936565b506100b9915083905060056101b0565b610120526100c88160066101b0565b61014052815160208084019190912060e052815190820120610100524660a05261015460e05161010051604080517f8b73c3c69bb8fe3d512ecc4cf759cc79239f7b179b0ffacaa9a75d522b39400f60208201529081019290925260608201524660808201523060a08201525f9060c00160405160208183030381529060405280519060200120905090565b60805250503060c052506001600160a01b03811661018c57604051631e4fbdf760e01b81525f60048201526024015b60405180910390fd5b610195816101e2565b506101ab336a084595161401484a000000610233565b610ac0565b5f6020835110156101cb576101c48361026b565b90506101dc565b816101d68482610936565b5060ff90505b92915050565b600b80546001600160a01b038381166001600160a01b0319831681179093556040519116919082907f8be0079c531659141344cd1fd0a4f28419497f9722a3daafe3b4186f6b6457e0905f90a35050565b6001600160a01b03821661025c5760405163ec442f0560e01b81525f6004820152602401610183565b6102675f83836102a8565b5050565b5f5f829050601f81511115610295578260405163305a27a960e01b815260040161018391906109f0565b80516102a082610a25565b179392505050565b6102b38383836102b8565b505050565b6102c383838361031e565b6001600160a01b038316610313575f6102db60025490565b90506001600160d01b038082111561031057604051630e58ae9360e11b81526004810183905260248101829052604401610183565b50505b6102b3838383610444565b6001600160a01b038316610348578060025f82825461033d9190610a5c565b909155506103b89050565b6001600160a01b0383165f908152602081905260409020548181101561039a5760405163391434e360e21b81526001600160a01b03851660048201526024810182905260448101839052606401610183565b6001600160a01b0384165f9081526020819052604090209082900390555b6001600160a01b0382166103d4576002805482900390556103f2565b6001600160a01b0382165f9081526020819052604090208054820190555b816001600160a01b0316836001600160a01b03167fddf252ad1be2c89b69c2b068fc378daa952ba7f163c4a11628f55a4df523b3ef8360405161043791815260200190565b60405180910390a3505050565b6001600160a01b0383166104725761046f600a610d626104cc60201b1761046a846104de565b610515565b50505b6001600160a01b03821661049b57610498600a610d6d61054a60201b1761046a846104de565b50505b6001600160a01b038381165f908152600860205260408082205485841683529120546102b392918216911683610555565b5f6104d78284610a6f565b9392505050565b5f6001600160d01b03821115610511576040516306dfcc6560e41b815260d0600482015260248101839052604401610183565b5090565b5f8061053d6105226106a5565b61053561052e886106b3565b868860201c565b8791906106fa565b915091505b935093915050565b5f6104d78284610a8e565b816001600160a01b0316836001600160a01b03161415801561057657505f81115b156102b3576001600160a01b0383161561060e576001600160a01b0383165f908152600960209081526040822082916105bc919061054a901b610d6d1761046a866104de565b6001600160d01b031691506001600160d01b03169150846001600160a01b03165f516020612dab5f395f51905f528383604051610603929190918252602082015260400190565b60405180910390a250505b6001600160a01b038216156102b3576001600160a01b0382165f9081526009602090815260408220829161064f91906104cc901b610d621761046a866104de565b6001600160d01b031691506001600160d01b03169150836001600160a01b03165f516020612dab5f395f51905f528383604051610696929190918252602082015260400190565b60405180910390a25050505050565b5f6106ae610707565b905090565b80545f9080156106f2576106d9836106cc600184610aad565b5f91825260209091200190565b54660100000000000090046001600160d01b03166104d7565b5f9392505050565b5f8061053d858585610711565b5f6106ae4361086d565b82545f9081908015610810575f61072d876106cc600185610aad565b805490915065ffffffffffff80821691660100000000000090046001600160d01b031690881682111561077357604051632520601d60e01b815260040160405180910390fd5b8765ffffffffffff168265ffffffffffff16036107af57825465ffffffffffff1666010000000000006001600160d01b03891602178355610802565b6040805180820190915265ffffffffffff808a1682526001600160d01b03808a1660208085019182528d54600181018f555f8f815291909120945191519092166601000000000000029216919091179101555b945085935061054292505050565b50506040805180820190915265ffffffffffff80851682526001600160d01b0380851660208085019182528854600181018a555f8a8152918220955192519093166601000000000000029190931617920191909155905081610542565b5f65ffffffffffff821115610511576040516306dfcc6560e41b81526030600482015260248101839052604401610183565b634e487b7160e01b5f52604160045260245ffd5b600181811c908216806108c757607f821691505b6020821081036108e557634e487b7160e01b5f52602260045260245ffd5b50919050565b601f8211156102b357805f5260205f20601f840160051c810160208510156109105750805b601f840160051c820191505b8181101561092f575f815560010161091c565b5050505050565b81516001600160401b0381111561094f5761094f61089f565b6109638161095d84546108b3565b846108eb565b6020601f821160018114610995575f831561097e5750848201515b5f19600385901b1c1916600184901b17845561092f565b5f84815260208120601f198516915b828110156109c457878501518255602094850194600190920191016109a4565b50848210156109e157868401515f19600387901b60f8161c191681555b50505050600190811b01905550565b602081525f82518060208401528060208501604085015e5f604082850101526040601f19601f83011684010191505092915050565b805160208083015191908110156108e5575f1960209190910360031b1b16919050565b634e487b7160e01b5f52601160045260245ffd5b808201808211156101dc576101dc610a48565b6001600160d01b0381811683821601908111156101dc576101dc610a48565b6001600160d01b0382811682821603908111156101dc576101dc610a48565b818103818111156101dc576101dc610a48565b60805160a05160c05160e05161010051610120516101405161229a610b115f395f61122901525f6111fc01525f610f9d01525f610f7501525f610ed001525f610efa01525f610f24015261229a5ff3fe608060405234801561000f575f5ffd5b5060043610610208575f3560e01c806370a082311161011f57806395d89b41116100a9578063d505accf11610079578063d505accf146104aa578063dd62ed3e146104bd578063f0f8d4f1146104f5578063f1127ed814610504578063f2fde38b14610543575f5ffd5b806395d89b41146104695780639ab24eb014610471578063a9059cbb14610484578063c3cda52014610497575f5ffd5b80638b6fc452116100ef5780638b6fc452146103f45780638ba4d852146104075780638da5cb5b146104265780638e539e8c1461043757806391ddadf41461044a575f5ffd5b806370a0823114610396578063715018a6146103be5780637ecebe00146103c657806384b0196e146103d9575f5ffd5b8063313ce567116101a05780634bf5d7e9116101705780634bf5d7e9146102fd578063533d5b6314610305578063587cde1e146103305780635c19a95c1461035b5780636fcfff451461036e575f5ffd5b8063313ce567146102c057806332cb6b0c146102cf5780633644e515146102e25780633a46b1a8146102ea575f5ffd5b806318160ddd116101db57806318160ddd1461027f57806323b872dd146102875780632b6e77e61461029a5780632c8a57c7146102ad575f5ffd5b806303835efd1461020c57806306fdde0314610221578063095ea7b31461023f57806312ec267714610262575b5f5ffd5b61021f61021a366004611eb9565b610556565b005b610229610678565b6040516102369190611f00565b60405180910390f35b61025261024d366004611f12565b610708565b6040519015158152602001610236565b610271674563918244f4000081565b604051908152602001610236565b600254610271565b610252610295366004611f3a565b610721565b61021f6102a8366004611eb9565b610744565b61021f6102bb366004611f12565b61076e565b60405160128152602001610236565b6102716b033b2e3c9fd0803ce800000081565b610271610884565b6102716102f8366004611f12565b610892565b6102296108cc565b600c54610318906001600160a01b031681565b6040516001600160a01b039091168152602001610236565b61031861033e366004611eb9565b6001600160a01b039081165f908152600860205260409020541690565b61021f610369366004611eb9565b610944565b61038161037c366004611eb9565b61094f565b60405163ffffffff9091168152602001610236565b6102716103a4366004611eb9565b6001600160a01b03165f9081526020819052604090205490565b61021f610959565b6102716103d4366004611eb9565b61096c565b6103e1610976565b6040516102369796959493929190611f74565b61021f610402366004611f12565b6109b8565b610271610415366004611eb9565b600d6020525f908152604090205481565b600b546001600160a01b0316610318565b61027161044536600461200a565b610aa6565b610452610aca565b60405165ffffffffffff9091168152602001610236565b610229610ad3565b61027161047f366004611eb9565b610ae2565b610252610492366004611f12565b610b02565b61021f6104a5366004612031565b610b0f565b61021f6104b8366004612085565b610bcb565b6102716104cb3660046120eb565b6001600160a01b039182165f90815260016020908152604080832093909416825291909152205490565b610271670de0b6b3a764000081565b61051761051236600461211c565b610d01565b60408051825165ffffffffffff1681526020928301516001600160d01b03169281019290925201610236565b61021f610551366004611eb9565b610d25565b600c546001600160a01b031633146105ac5760405162461bcd60e51b815260206004820152601460248201527313db9b1e481cdbd8da585b0818dbdb9d1c9858dd60621b60448201526064015b60405180910390fd5b5f6105ba6201518042612181565b6001600160a01b0383165f908152600d6020526040902054909150811115610674576001600160a01b0382165f908152600d602052604090208190556b033b2e3c9fd0803ce8000000674563918244f4000061061560025490565b61061f91906121a0565b11156106625760405162461bcd60e51b815260206004820152601260248201527113585e081cdd5c1c1b1e481c995858da195960721b60448201526064016105a3565b61067482674563918244f40000610d78565b5050565b606060038054610687906121b3565b80601f01602080910402602001604051908101604052809291908181526020018280546106b3906121b3565b80156106fe5780601f106106d5576101008083540402835291602001916106fe565b820191905f5260205f20905b8154815290600101906020018083116106e157829003601f168201915b5050505050905090565b5f33610715818585610dac565b60019150505b92915050565b5f3361072e858285610dbe565b610739858585610e3a565b506001949350505050565b61074c610e97565b600c80546001600160a01b0319166001600160a01b0392909216919091179055565b600c546001600160a01b031633146107bf5760405162461bcd60e51b815260206004820152601460248201527313db9b1e481cdbd8da585b0818dbdb9d1c9858dd60621b60448201526064016105a3565b6b033b2e3c9fd0803ce8000000670de0b6b3a76400006107de60025490565b6107e891906121a0565b111561082b5760405162461bcd60e51b815260206004820152601260248201527113585e081cdd5c1c1b1e481c995858da195960721b60448201526064016105a3565b61083d82670de0b6b3a7640000610d78565b816001600160a01b03167f7cbb93317e7b6a5ed0e5fa40a4824932438fdb7147ec1d0f5eb9b088e4f5a7678260405161087891815260200190565b60405180910390a25050565b5f61088d610ec4565b905090565b5f6108bc61089f83610fed565b6001600160a01b0385165f9081526009602052604090209061103b565b6001600160d01b03169392505050565b60606108d66110eb565b65ffffffffffff166108e6610aca565b65ffffffffffff161461090c576040516301bfc1c560e61b815260040160405180910390fd5b5060408051808201909152601d81527f6d6f64653d626c6f636b6e756d6265722666726f6d3d64656661756c74000000602082015290565b3361067481836110f5565b5f61071b82611166565b610961610e97565b61096a5f611187565b565b5f61071b826111d8565b5f6060805f5f5f60606109876111f5565b61098f611222565b604080515f80825260208201909252600f60f81b9b939a50919850469750309650945092509050565b336001600160a01b03831603610a065760405162461bcd60e51b815260206004820152601360248201527221b0b73737ba103a34b8103cb7bab939b2b63360691b60448201526064016105a3565b335f90815260208190526040902054811115610a575760405162461bcd60e51b815260206004820152601060248201526f496e73756666696369656e7420534f4360801b60448201526064016105a3565b610a62338383610e3a565b6040518181526001600160a01b0383169033907f91d9aec1bf873fb589194ec67c304522c89e9e1de41ed647cf135fb41226befc9060200160405180910390a35050565b5f610abb610ab383610fed565b600a9061103b565b6001600160d01b031692915050565b5f61088d6110eb565b606060048054610687906121b3565b6001600160a01b0381165f908152600960205260408120610abb9061124f565b5f33610715818585610e3a565b83421115610b3357604051632341d78760e11b8152600481018590526024016105a3565b604080517fe48329057bfd03d55e49b547132e39cffd9c1820ad7b9d4c5307691425d15adf60208201526001600160a01b0388169181019190915260608101869052608081018590525f90610bac90610ba49060a00160405160208183030381529060405280519060200120611286565b8585856112b2565b9050610bb881876112de565b610bc281886110f5565b50505050505050565b83421115610bef5760405163313c898160e11b8152600481018590526024016105a3565b5f7f6e71edae12b1b97f4d1f60370fef10105fa2faae0126114a169c64845d6126c9888888610c3a8c6001600160a01b03165f90815260076020526040902080546001810190915590565b6040805160208101969096526001600160a01b0394851690860152929091166060840152608083015260a082015260c0810186905260e0016040516020818303038152906040528051906020012090505f610c9482611286565b90505f610ca3828787876112b2565b9050896001600160a01b0316816001600160a01b031614610cea576040516325c0072360e11b81526001600160a01b0380831660048301528b1660248201526044016105a3565b610cf58a8a8a610dac565b50505050505050505050565b604080518082019091525f8082526020820152610d1e8383611330565b9392505050565b610d2d610e97565b6001600160a01b038116610d5657604051631e4fbdf760e01b81525f60048201526024016105a3565b610d5f81611187565b50565b5f610d1e82846121eb565b5f610d1e828461220a565b6001600160a01b038216610da15760405163ec442f0560e01b81525f60048201526024016105a3565b6106745f8383611364565b610db9838383600161136f565b505050565b6001600160a01b038381165f908152600160209081526040808320938616835292905220545f19811015610e345781811015610e2657604051637dc7a0d960e11b81526001600160a01b038416600482015260248101829052604481018390526064016105a3565b610e3484848484035f61136f565b50505050565b6001600160a01b038316610e6357604051634b637e8f60e11b81525f60048201526024016105a3565b6001600160a01b038216610e8c5760405163ec442f0560e01b81525f60048201526024016105a3565b610db9838383611364565b600b546001600160a01b0316331461096a5760405163118cdaa760e01b81523360048201526024016105a3565b5f306001600160a01b037f000000000000000000000000000000000000000000000000000000000000000016148015610f1c57507f000000000000000000000000000000000000000000000000000000000000000046145b15610f4657507f000000000000000000000000000000000000000000000000000000000000000090565b61088d604080517f8b73c3c69bb8fe3d512ecc4cf759cc79239f7b179b0ffacaa9a75d522b39400f60208201527f0000000000000000000000000000000000000000000000000000000000000000918101919091527f000000000000000000000000000000000000000000000000000000000000000060608201524660808201523060a08201525f9060c00160405160208183030381529060405280519060200120905090565b5f5f610ff7610aca565b90508065ffffffffffff16831061103257604051637669fc0f60e11b81526004810184905265ffffffffffff821660248201526044016105a3565b610d1e83611441565b81545f9081816005811115611097575f61105484611477565b61105e9085612229565b5f8881526020902090915081015465ffffffffffff908116908716101561108757809150611095565b6110928160016121a0565b92505b505b5f6110a4878785856115cf565b905080156110de576110c8876110bb600184612229565b5f91825260209091200190565b54600160301b90046001600160d01b03166110e0565b5f5b979650505050505050565b5f61088d43611441565b6001600160a01b038281165f8181526008602052604080822080548686166001600160a01b0319821681179092559151919094169392849290917f3134e8a2e6d97e929a7e54011ea5485d7d196dd5f0ba4d4ef95803e8e3fc257f9190a4610db9818361116186611625565b611642565b6001600160a01b0381165f9081526009602052604081205461071b906117ab565b600b80546001600160a01b038381166001600160a01b0319831681179093556040519116919082907f8be0079c531659141344cd1fd0a4f28419497f9722a3daafe3b4186f6b6457e0905f90a35050565b6001600160a01b0381165f9081526007602052604081205461071b565b606061088d7f000000000000000000000000000000000000000000000000000000000000000060056117db565b606061088d7f000000000000000000000000000000000000000000000000000000000000000060066117db565b80545f90801561127e57611268836110bb600184612229565b54600160301b90046001600160d01b0316610d1e565b5f9392505050565b5f61071b611292610ec4565b8360405161190160f01b8152600281019290925260228201526042902090565b5f5f5f5f6112c288888888611884565b9250925092506112d2828261194c565b50909695505050505050565b6001600160a01b0382165f908152600760205260409020805460018101909155818114610db9576040516301d4b62360e61b81526001600160a01b0384166004820152602481018290526044016105a3565b604080518082019091525f80825260208201526001600160a01b0383165f908152600960205260409020610d1e9083611a04565b610db9838383611a71565b6001600160a01b0384166113985760405163e602df0560e01b81525f60048201526024016105a3565b6001600160a01b0383166113c157604051634a1406b160e11b81525f60048201526024016105a3565b6001600160a01b038085165f9081526001602090815260408083209387168352929052208290558015610e3457826001600160a01b0316846001600160a01b03167f8c5be1e5ebec7d5bd14f71427d1e84f3dd0314c0f7b2291e5b200ac8c7c3b9258460405161143391815260200190565b60405180910390a350505050565b5f65ffffffffffff821115611473576040516306dfcc6560e41b815260306004820152602481018390526044016105a3565b5090565b5f60018211611484575090565b816001600160801b821061149d5760809190911c9060401b5b6801000000000000000082106114b85760409190911c9060201b5b64010000000082106114cf5760209190911c9060101b5b6201000082106114e45760109190911c9060081b5b61010082106114f85760089190911c9060041b5b6010821061150b5760049190911c9060021b5b600482106115175760011b5b600302600190811c9081858161152f5761152f612159565b048201901c9050600181858161154757611547612159565b048201901c9050600181858161155f5761155f612159565b048201901c9050600181858161157757611577612159565b048201901c9050600181858161158f5761158f612159565b048201901c905060018185816115a7576115a7612159565b048201901c90506115c68185816115c0576115c0612159565b04821190565b90039392505050565b5f5b8183101561161d575f85815260209020838316600285851804019081015465ffffffffffff8681169116111561160957809250611617565b6116148160016121a0565b93505b506115d1565b509392505050565b6001600160a01b0381165f9081526020819052604081205461071b565b816001600160a01b0316836001600160a01b03161415801561166357505f81115b15610db9576001600160a01b0383161561170a576001600160a01b0383165f90815260096020526040812081906116a590610d6d6116a086611ad7565b611b0a565b6001600160d01b031691506001600160d01b03169150846001600160a01b03167fdec2bacdd2f05b59de34da9b523dff8be42e5e38e818c82fdb0bae774387a72483836040516116ff929190918252602082015260400190565b60405180910390a250505b6001600160a01b03821615610db9576001600160a01b0382165f908152600960205260408120819061174290610d626116a086611ad7565b6001600160d01b031691506001600160d01b03169150836001600160a01b03167fdec2bacdd2f05b59de34da9b523dff8be42e5e38e818c82fdb0bae774387a724838360405161179c929190918252602082015260400190565b60405180910390a25050505050565b5f63ffffffff821115611473576040516306dfcc6560e41b815260206004820152602481018390526044016105a3565b606060ff83146117f5576117ee83611b42565b905061071b565b818054611801906121b3565b80601f016020809104026020016040519081016040528092919081815260200182805461182d906121b3565b80156118785780601f1061184f57610100808354040283529160200191611878565b820191905f5260205f20905b81548152906001019060200180831161185b57829003601f168201915b5050505050905061071b565b5f80807f7fffffffffffffffffffffffffffffff5d576e7357a4501ddfe92f46681b20a08411156118bd57505f91506003905082611942565b604080515f808252602082018084528a905260ff891692820192909252606081018790526080810186905260019060a0016020604051602081039080840390855afa15801561190e573d5f5f3e3d5ffd5b5050604051601f1901519150506001600160a01b03811661193957505f925060019150829050611942565b92505f91508190505b9450945094915050565b5f82600381111561195f5761195f61223c565b03611968575050565b600182600381111561197c5761197c61223c565b0361199a5760405163f645eedf60e01b815260040160405180910390fd5b60028260038111156119ae576119ae61223c565b036119cf5760405163fce698f760e01b8152600481018290526024016105a3565b60038260038111156119e3576119e361223c565b03610674576040516335e2f38360e21b8152600481018290526024016105a3565b604080518082019091525f8082526020820152825f018263ffffffff1681548110611a3157611a31612250565b5f9182526020918290206040805180820190915291015465ffffffffffff81168252600160301b90046001600160d01b0316918101919091529392505050565b611a7c838383611b7f565b6001600160a01b038316611acc575f611a9460025490565b90506001600160d01b0380821115611ac957604051630e58ae9360e11b815260048101839052602481018290526044016105a3565b50505b610db9838383611ca5565b5f6001600160d01b03821115611473576040516306dfcc6560e41b815260d06004820152602481018390526044016105a3565b5f5f611b35611b17610aca565b611b2d611b238861124f565b868863ffffffff16565b879190611d1a565b915091505b935093915050565b60605f611b4e83611d27565b6040805160208082528183019092529192505f91906020820181803683375050509182525060208101929092525090565b6001600160a01b038316611ba9578060025f828254611b9e91906121a0565b90915550611c199050565b6001600160a01b0383165f9081526020819052604090205481811015611bfb5760405163391434e360e21b81526001600160a01b038516600482015260248101829052604481018390526064016105a3565b6001600160a01b0384165f9081526020819052604090209082900390555b6001600160a01b038216611c3557600280548290039055611c53565b6001600160a01b0382165f9081526020819052604090208054820190555b816001600160a01b0316836001600160a01b03167fddf252ad1be2c89b69c2b068fc378daa952ba7f163c4a11628f55a4df523b3ef83604051611c9891815260200190565b60405180910390a3505050565b6001600160a01b038316611cc757611cc4600a610d626116a084611ad7565b50505b6001600160a01b038216611ce957611ce6600a610d6d6116a084611ad7565b50505b6001600160a01b038381165f90815260086020526040808220548584168352912054610db992918216911683611642565b5f80611b35858585611d4e565b5f60ff8216601f81111561071b57604051632cd44ac360e21b815260040160405180910390fd5b82545f9081908015611e44575f611d6a876110bb600185612229565b805490915065ffffffffffff80821691600160301b90046001600160d01b0316908816821115611dad57604051632520601d60e01b815260040160405180910390fd5b8765ffffffffffff168265ffffffffffff1603611de657825465ffffffffffff16600160301b6001600160d01b03891602178355611e36565b6040805180820190915265ffffffffffff808a1682526001600160d01b03808a1660208085019182528d54600181018f555f8f81529190912094519151909216600160301b029216919091179101555b9450859350611b3a92505050565b50506040805180820190915265ffffffffffff80851682526001600160d01b0380851660208085019182528854600181018a555f8a815291822095519251909316600160301b029190931617920191909155905081611b3a565b80356001600160a01b0381168114611eb4575f5ffd5b919050565b5f60208284031215611ec9575f5ffd5b610d1e82611e9e565b5f81518084528060208401602086015e5f602082860101526020601f19601f83011685010191505092915050565b602081525f610d1e6020830184611ed2565b5f5f60408385031215611f23575f5ffd5b611f2c83611e9e565b946020939093013593505050565b5f5f5f60608486031215611f4c575f5ffd5b611f5584611e9e565b9250611f6360208501611e9e565b929592945050506040919091013590565b60ff60f81b8816815260e060208201525f611f9260e0830189611ed2565b8281036040840152611fa48189611ed2565b606084018890526001600160a01b038716608085015260a0840186905283810360c0850152845180825260208087019350909101905f5b81811015611ff9578351835260209384019390920191600101611fdb565b50909b9a5050505050505050505050565b5f6020828403121561201a575f5ffd5b5035919050565b803560ff81168114611eb4575f5ffd5b5f5f5f5f5f5f60c08789031215612046575f5ffd5b61204f87611e9e565b9550602087013594506040870135935061206b60608801612021565b9598949750929560808101359460a0909101359350915050565b5f5f5f5f5f5f5f60e0888a03121561209b575f5ffd5b6120a488611e9e565b96506120b260208901611e9e565b955060408801359450606088013593506120ce60808901612021565b9699959850939692959460a0840135945060c09093013592915050565b5f5f604083850312156120fc575f5ffd5b61210583611e9e565b915061211360208401611e9e565b90509250929050565b5f5f6040838503121561212d575f5ffd5b61213683611e9e565b9150602083013563ffffffff8116811461214e575f5ffd5b809150509250929050565b634e487b7160e01b5f52601260045260245ffd5b634e487b7160e01b5f52601160045260245ffd5b5f8261219b57634e487b7160e01b5f52601260045260245ffd5b500490565b8082018082111561071b5761071b61216d565b600181811c908216806121c757607f821691505b6020821081036121e557634e487b7160e01b5f52602260045260245ffd5b50919050565b6001600160d01b03818116838216019081111561071b5761071b61216d565b6001600160d01b03828116828216039081111561071b5761071b61216d565b8181038181111561071b5761071b61216d565b634e487b7160e01b5f52602160045260245ffd5b634e487b7160e01b5f52603260045260245ffdfea26469706673582212208313af97ef7754a7322928e4dd57c601a44363b677a7b48b01f46ed942a08feb64736f6c634300081c0033dec2bacdd2f05b59de34da9b523dff8be42e5e38e818c82fdb0bae774387a724",
  "linkReferences": {},
  "deployedLinkReferences": {}
}