{
  "_format": "hh-sol-artifact-1",
  "contractName": "SocioChain",
  "sourceName": "contracts/SocioChain.sol",
  "abi": [
    {
      "inputs": [],
      "stateMutability": "nonpayable",
      "type": "constructor"
    },
    {
      "inputs": [
        {
          "internalType": "address",
          "name": "sender",
          "type": "address"
        },
        {
          "internalType": "uint256",
          "name": "tokenId",
          "type": "uint256"
        },
        {
          "internalType": "address",
          "name": "owner",
          "type": "address"
        }
      ],
      "name": "ERC721IncorrectOwner",
      "type": "error"
    },
    {
      "inputs": [
        {
          "internalType": "address",
          "name": "operator",
          "type": "address"
        },
        {
          "internalType": "uint256",
          "name": "tokenId",
          "type": "uint256"
        }
      ],
      "name": "ERC721InsufficientApproval",
      "type": "error"
    },
    {
      "inputs": [
        {
          "internalType": "address",
          "name": "approver",
          "type": "address"
        }
      ],
      "name": "ERC721InvalidApprover",
      "type": "error"
    },
    {
      "inputs": [
        {
          "internalType": "address",
          "name": "operator",
          "type": "address"
        }
      ],
      "name": "ERC721InvalidOperator",
      "type": "error"
    },
    {
      "inputs": [
        {
          "internalType": "address",
          "name": "owner",
          "type": "address"
        }
      ],
      "name": "ERC721InvalidOwner",
      "type": "error"
    },
    {
      "inputs": [
        {
          "internalType": "address",
          "name": "receiver",
          "type": "address"
        }
      ],
      "name": "ERC721InvalidReceiver",
      "type": "error"
    },
    {
      "inputs": [
        {
          "internalType": "address",
          "name": "sender",
          "type": "address"
        }
      ],
      "name": "ERC721InvalidSender",
      "type": "error"
    },
    {
      "inputs": [
        {
          "internalType": "uint256",
          "name": "tokenId",
          "type": "uint256"
        }
      ],
      "name": "ERC721NonexistentToken",
      "type": "error"
    },
    {
      "inputs": [
        {
          "internalType": "address",
          "name": "owner",
          "type": "address"
        }
      ],
      "name": "OwnableInvalidOwner",
      "type": "error"
    },
    {
      "inputs": [
        {
          "internalType": "address",
          "name": "account",
          "type": "address"
        }
      ],
      "name": "OwnableUnauthorizedAccount",
      "type": "error"
    },
    {
      "inputs": [],
      "name": "ReentrancyGuardReentrantCall",
      "type": "error"
    },
    {
      "anonymous": false,
      "inputs": [
        {
          "indexed": true,
          "internalType": "address",
          "name": "owner",
          "type": "address"
        },
        {
          "indexed": true,
          "internalType": "address",
          "name": "approved",
          "type": "address"
        },
        {
          "indexed": true,
          "internalType": "uint256",
          "name": "tokenId",
          "type": "uint256"
        }
      ],
      "name": "Approval",
      "type": "event"
    },
    {
      "anonymous": false,
      "inputs": [
        {
          "indexed": true,
          "internalType": "address",
          "name": "owner",
          "type": "address"
        },
        {
          "indexed": true,
          "internalType": "address",
          "name": "operator",
          "type": "address"
        },
        {
          "indexed": false,
          "internalType": "bool",
          "name": "approved",
          "type": "bool"
        }
      ],
      "name": "ApprovalForAll",
      "type": "event"
    },
    {
      "anonymous": false,
      "inputs": [
        {
          "indexed": true,
          "internalType": "address",
          "name": "owner",
          "type": "address"
        },
        {
          "indexed": true,
          "internalType": "address",
          "name": "accessor",
          "type": "address"
        }
      ],
      "name": "DataPermissionGranted",
      "type": "event"
    },
    {
      "anonymous": false,
      "inputs": [
        {
          "indexed": true,
          "internalType": "address",
          "name": "owner",
          "type": "address"
        },
        {
          "indexed": true,
          "internalType": "address",
          "name": "accessor",
          "type": "address"
        }
      ],
      "name": "DataPermissionRevoked",
      "type": "event"
    },
    {
      "anonymous": false,
      "inputs": [
        {
          "indexed": true,
          "internalType": "address",
          "name": "follower",
          "type": "address"
        },
        {
          "indexed": true,
          "internalType": "address",
          "name": "followed",
          "type": "address"
        }
      ],
      "name": "Followed",
      "type": "event"
    },
    {
      "anonymous": false,
      "inputs": [
        {
          "indexed": true,
          "internalType": "uint256",
          "name": "groupId",
          "type": "uint256"
        },
        {
          "indexed": true,
          "internalType": "address",
          "name": "creator",
          "type": "address"
        },
        {
          "indexed": false,
          "internalType": "string",
          "name": "name",
          "type": "string"
        }
      ],
      "name": "GroupCreated",
      "type": "event"
    },
    {
      "anonymous": false,
      "inputs": [
        {
          "indexed": true,
          "internalType": "uint256",
          "name": "groupId",
          "type": "uint256"
        },
        {
          "indexed": true,
          "internalType": "address",
          "name": "member",
          "type": "address"
        }
      ],
      "name": "GroupJoined",
      "type": "event"
    },
    {
      "anonymous": false,
      "inputs": [
        {
          "indexed": true,
          "internalType": "uint256",
          "name": "groupId",
          "type": "uint256"
        },
        {
          "indexed": true,
          "internalType": "address",
          "name": "member",
          "type": "address"
        }
      ],
      "name": "GroupLeft",
      "type": "event"
    },
    {
      "anonymous": false,
      "inputs": [
        {
          "indexed": true,
          "internalType": "address",
          "name": "previousOwner",
          "type": "address"
        },
        {
          "indexed": true,
          "internalType": "address",
          "name": "newOwner",
          "type": "address"
        }
      ],
      "name": "OwnershipTransferred",
      "type": "event"
    },
    {
      "anonymous": false,
      "inputs": [
        {
          "indexed": true,
          "internalType": "uint256",
          "name": "postId",
          "type": "uint256"
        },
        {
          "indexed": true,
          "internalType": "address",
          "name": "author",
          "type": "address"
        },
        {
          "indexed": false,
          "internalType": "enum SocioChain.PostType",
          "name": "postType",
          "type": "uint8"
        }
      ],
      "name": "PostCreated",
      "type": "event"
    },
    {
      "anonymous": false,
      "inputs": [
        {
          "indexed": true,
          "internalType": "uint256",
          "name": "postId",
          "type": "uint256"
        },
        {
          "indexed": true,
          "internalType": "address",
          "name": "author",
          "type": "address"
        }
      ],
      "name": "PostDeleted",
      "type": "event"
    },
    {
      "anonymous": false,
      "inputs": [
        {
          "indexed": true,
          "internalType": "uint256",
          "name": "postId",
          "type": "uint256"
        },
        {
          "indexed": true,
          "internalType": "address",
          "name": "flagger",
          "type": "address"
        }
      ],
      "name": "PostFlagged",
      "type": "event"
    },
    {
      "anonymous": false,
      "inputs": [
        {
          "indexed": true,
          "internalType": "uint256",
          "name": "postId",
          "type": "uint256"
        },
        {
          "indexed": true,
          "internalType": "address",
          "name": "liker",
          "type": "address"
        }
      ],
      "name": "PostLiked",
      "type": "event"
    },
    {
      "anonymous": false,
      "inputs": [
        {
          "indexed": true,
          "internalType": "uint256",
          "name": "postId",
          "type": "uint256"
        },
        {
          "indexed": true,
          "internalType": "address",
          "name": "liker",
          "type": "address"
        }
      ],
      "name": "PostUnliked",
      "type": "event"
    },
    {
      "anonymous": false,
      "inputs": [
        {
          "indexed": true,
          "internalType": "address",
          "name": "wallet",
          "type": "address"
        },
        {
          "indexed": false,
          "internalType": "string",
          "name": "ipfsHash",
          "type": "string"
        }
      ],
      "name": "ProfileCreated",
      "type": "event"
    },
    {
      "anonymous": false,
      "inputs": [
        {
          "indexed": true,
          "internalType": "address",
          "name": "wallet",
          "type": "address"
        },
        {
          "indexed": false,
          "internalType": "string",
          "name": "ipfsHash",
          "type": "string"
        }
      ],
      "name": "ProfileUpdated",
      "type": "event"
    },
    {
      "anonymous": false,
      "inputs": [
        {
          "indexed": true,
          "internalType": "address",
          "name": "from",
          "type": "address"
        },
        {
          "indexed": true,
          "internalType": "address",
          "name": "to",
          "type": "address"
        },
        {
          "indexed": true,
          "internalType": "uint256",
          "name": "tokenId",
          "type": "uint256"
        }
      ],
      "name": "Transfer",
      "type": "event"
    },
    {
      "anonymous": false,
      "inputs": [
        {
          "indexed": true,
          "internalType": "address",
          "name": "follower",
          "type": "address"
        },
        {
          "indexed": true,
          "internalType": "address",
          "name": "followed",
          "type": "address"
        }
      ],
      "name": "Unfollowed",
      "type": "event"
    },
    {
      "inputs": [],
      "name": "MAX_FLAG_AUTO_HIDE",
      "outputs": [
        {
          "internalType": "uint256",
          "name": "",
          "type": "uint256"
        }
      ],
      "stateMutability": "view",
      "type": "function"
    },
    {
      "inputs": [
        {
          "internalType": "address",
          "name": "to",
          "type": "address"
        },
        {
          "internalType": "uint256",
          "name": "tokenId",
          "type": "uint256"
        }
      ],
      "name": "approve",
      "outputs": [],
      "stateMutability": "nonpayable",
      "type": "function"
    },
    {
      "inputs": [
        {
          "internalType": "address",
          "name": "owner",
          "type": "address"
        }
      ],
      "name": "balanceOf",
      "outputs": [
        {
          "internalType": "uint256",
          "name": "",
          "type": "uint256"
        }
      ],
      "stateMutability": "view",
      "type": "function"
    },
    {
      "inputs": [
        {
          "internalType": "string",
          "name": "_name",
          "type": "string"
        },
        {
          "internalType": "string",
          "name": "_ipfsHash",
          "type": "string"
        },
        {
          "internalType": "bool",
          "name": "_isPrivate",
          "type": "bool"
        }
      ],
      "name": "createGroup",
      "outputs": [
        {
          "internalType": "uint256",
          "name": "",
          "type": "uint256"
        }
      ],
      "stateMutability": "nonpayable",
      "type": "function"
    },
    {
      "inputs": [
        {
          "internalType": "string",
          "name": "_ipfsHash",
          "type": "string"
        },
        {
          "internalType": "enum SocioChain.PostType",
          "name": "_type",
          "type": "uint8"
        },
        {
          "internalType": "uint256",
          "name": "_parentId",
          "type": "uint256"
        }
      ],
      "name": "createPost",
      "outputs": [
        {
          "internalType": "uint256",
          "name": "",
          "type": "uint256"
        }
      ],
      "stateMutability": "nonpayable",
      "type": "function"
    },
    {
      "inputs": [
        {
          "internalType": "string",
          "name": "_ipfsHash",
          "type": "string"
        }
      ],
      "name": "createProfile",
      "outputs": [],
      "stateMutability": "nonpayable",
      "type": "function"
    },
    {
      "inputs": [
        {
          "internalType": "address",
          "name": "",
          "type": "address"
        },
        {
          "internalType": "address",
          "name": "",
          "type": "address"
        }
      ],
      "name": "dataPermissions",
      "outputs": [
        {
          "internalType": "bool",
          "name": "",
          "type": "bool"
        }
      ],
      "stateMutability": "view",
      "type": "function"
    },
    {
      "inputs": [
        {
          "internalType": "uint256",
          "name": "_postId",
          "type": "uint256"
        }
      ],
      "name": "deletePost",
      "outputs": [],
      "stateMutability": "nonpayable",
      "type": "function"
    },
    {
      "inputs": [
        {
          "internalType": "uint256",
          "name": "",
          "type": "uint256"
        }
      ],
      "name": "flagCount",
      "outputs": [
        {
          "internalType": "uint256",
          "name": "",
          "type": "uint256"
        }
      ],
      "stateMutability": "view",
      "type": "function"
    },
    {
      "inputs": [
        {
          "internalType": "uint256",
          "name": "_postId",
          "type": "uint256"
        }
      ],
      "name": "flagPost",
      "outputs": [],
      "stateMutability": "nonpayable",
      "type": "function"
    },
    {
      "inputs": [
        {
          "internalType": "uint256",
          "name": "",
          "type": "uint256"
        },
        {
          "internalType": "address",
          "name": "",
          "type": "address"
        }
      ],
      "name": "flagged",
      "outputs": [
        {
          "internalType": "bool",
          "name": "",
          "type": "bool"
        }
      ],
      "stateMutability": "view",
      "type": "function"
    },
    {
      "inputs": [
        {
          "internalType": "address",
          "name": "_target",
          "type": "address"
        }
      ],
      "name": "follow",
      "outputs": [],
      "stateMutability": "nonpayable",
      "type": "function"
    },
    {
      "inputs": [
        {
          "internalType": "address",
          "name": "",
          "type": "address"
        },
        {
          "internalType": "address",
          "name": "",
          "type": "address"
        }
      ],
      "name": "following",
      "outputs": [
        {
          "internalType": "bool",
          "name": "",
          "type": "bool"
        }
      ],
      "stateMutability": "view",
      "type": "function"
    },
    {
      "inputs": [
        {
          "internalType": "uint256",
          "name": "tokenId",
          "type": "uint256"
        }
      ],
      "name": "getApproved",
      "outputs": [
        {
          "internalType": "address",
          "name": "",
          "type": "address"
        }
      ],
      "stateMutability": "view",
      "type": "function"
    },
    {
      "inputs": [
        {
          "internalType": "uint256",
          "name": "_postId",
          "type": "uint256"
        }
      ],
      "name": "getPost",
      "outputs": [
        {
          "components": [
            {
              "internalType": "uint256",
              "name": "id",
              "type": "uint256"
            },
            {
              "internalType": "address",
              "name": "author",
              "type": "address"
            },
            {
              "internalType": "string",
              "name": "ipfsHash",
              "type": "string"
            },
            {
              "internalType": "uint256",
              "name": "createdAt",
              "type": "uint256"
            },
            {
              "internalType": "uint256",
              "name": "likes",
              "type": "uint256"
            },
            {
              "internalType": "uint256",
              "name": "reposts",
              "type": "uint256"
            },
            {
              "internalType": "uint256",
              "name": "commentCount",
              "type": "uint256"
            },
            {
              "internalType": "bool",
              "name": "isDeleted",
              "type": "bool"
            },
            {
              "internalType": "enum SocioChain.PostType",
              "name": "postType",
              "type": "uint8"
            },
            {
              "internalType": "uint256",
              "name": "parentId",
              "type": "uint256"
            }
          ],
          "internalType": "struct SocioChain.Post",
          "name": "",
          "type": "tuple"
        }
      ],
      "stateMutability": "view",
      "type": "function"
    },
    {
      "inputs": [
        {
          "internalType": "address",
          "name": "_wallet",
          "type": "address"
        }
      ],
      "name": "getProfile",
      "outputs": [
        {
          "components": [
            {
              "internalType": "address",
              "name": "wallet",
              "type": "address"
            },
            {
              "internalType": "string",
              "name": "ipfsHash",
              "type": "string"
            },
            {
              "internalType": "uint256",
              "name": "createdAt",
              "type": "uint256"
            },
            {
              "internalType": "uint256",
              "name": "postCount",
              "type": "uint256"
            },
            {
              "internalType": "uint256",
              "name": "followerCount",
              "type": "uint256"
            },
            {
              "internalType": "uint256",
              "name": "followingCount",
              "type": "uint256"
            },
            {
              "internalType": "bool",
              "name": "exists",
              "type": "bool"
            },
            {
              "internalType": "bool",
              "name": "verified",
              "type": "bool"
            }
          ],
          "internalType": "struct SocioChain.Profile",
          "name": "",
          "type": "tuple"
        }
      ],
      "stateMutability": "view",
      "type": "function"
    },
    {
      "inputs": [
        {
          "internalType": "address",
          "name": "_accessor",
          "type": "address"
        }
      ],
      "name": "grantDataPermission",
      "outputs": [],
      "stateMutability": "nonpayable",
      "type": "function"
    },
    {
      "inputs": [
        {
          "internalType": "uint256",
          "name": "",
          "type": "uint256"
        },
        {
          "internalType": "address",
          "name": "",
          "type": "address"
        }
      ],
      "name": "groupAdmin",
      "outputs": [
        {
          "internalType": "bool",
          "name": "",
          "type": "bool"
        }
      ],
      "stateMutability": "view",
      "type": "function"
    },
    {
      "inputs": [],
      "name": "groupCount",
      "outputs": [
        {
          "internalType": "uint256",
          "name": "",
          "type": "uint256"
        }
      ],
      "stateMutability": "view",
      "type": "function"
    },
    {
      "inputs": [
        {
          "internalType": "uint256",
          "name": "",
          "type": "uint256"
        },
        {
          "internalType": "address",
          "name": "",
          "type": "address"
        }
      ],
      "name": "groupMember",
      "outputs": [
        {
          "internalType": "bool",
          "name": "",
          "type": "bool"
        }
      ],
      "stateMutability": "view",
      "type": "function"
    },
    {
      "inputs": [
        {
          "internalType": "uint256",
          "name": "",
          "type": "uint256"
        }
      ],
      "name": "groups",
      "outputs": [
        {
          "internalType": "uint256",
          "name": "id",
          "type": "uint256"
        },
        {
          "internalType": "address",
          "name": "creator",
          "type": "address"
        },
        {
          "internalType": "string",
          "name": "name",
          "type": "string"
        },
        {
          "internalType": "string",
          "name": "ipfsHash",
          "type": "string"
        },
        {
          "internalType": "uint256",
          "name": "memberCount",
          "type": "uint256"
        },
        {
          "internalType": "bool",
          "name": "isPrivate",
          "type": "bool"
        },
        {
          "internalType": "uint256",
          "name": "createdAt",
          "type": "uint256"
        }
      ],
      "stateMutability": "view",
      "type": "function"
    },
    {
      "inputs": [
        {
          "internalType": "address",
          "name": "_user",
          "type": "address"
        },
        {
          "internalType": "uint256",
          "name": "_postId",
          "type": "uint256"
        }
      ],
      "name": "hasLiked",
      "outputs": [
        {
          "internalType": "bool",
          "name": "",
          "type": "bool"
        }
      ],
      "stateMutability": "view",
      "type": "function"
    },
    {
      "inputs": [
        {
          "internalType": "address",
          "name": "owner",
          "type": "address"
        },
        {
          "internalType": "address",
          "name": "operator",
          "type": "address"
        }
      ],
      "name": "isApprovedForAll",
      "outputs": [
        {
          "internalType": "bool",
          "name": "",
          "type": "bool"
        }
      ],
      "stateMutability": "view",
      "type": "function"
    },
    {
      "inputs": [
        {
          "internalType": "address",
          "name": "_follower",
          "type": "address"
        },
        {
          "internalType": "address",
          "name": "_followed",
          "type": "address"
        }
      ],
      "name": "isFollowing",
      "outputs": [
        {
          "internalType": "bool",
          "name": "",
          "type": "bool"
        }
      ],
      "stateMutability": "view",
      "type": "function"
    },
    {
      "inputs": [
        {
          "internalType": "uint256",
          "name": "_postId",
          "type": "uint256"
        }
      ],
      "name": "isHidden",
      "outputs": [
        {
          "internalType": "bool",
          "name": "",
          "type": "bool"
        }
      ],
      "stateMutability": "view",
      "type": "function"
    },
    {
      "inputs": [
        {
          "internalType": "uint256",
          "name": "_groupId",
          "type": "uint256"
        }
      ],
      "name": "joinGroup",
      "outputs": [],
      "stateMutability": "nonpayable",
      "type": "function"
    },
    {
      "inputs": [
        {
          "internalType": "uint256",
          "name": "_groupId",
          "type": "uint256"
        }
      ],
      "name": "leaveGroup",
      "outputs": [],
      "stateMutability": "nonpayable",
      "type": "function"
    },
    {
      "inputs": [
        {
          "internalType": "uint256",
          "name": "",
          "type": "uint256"
        },
        {
          "internalType": "address",
          "name": "",
          "type": "address"
        }
      ],
      "name": "liked",
      "outputs": [
        {
          "internalType": "bool",
          "name": "",
          "type": "bool"
        }
      ],
      "stateMutability": "view",
      "type": "function"
    },
    {
      "inputs": [],
      "name": "name",
      "outputs": [
        {
          "internalType": "string",
          "name": "",
          "type": "string"
        }
      ],
      "stateMutability": "view",
      "type": "function"
    },
    {
      "inputs": [],
      "name": "owner",
      "outputs": [
        {
          "internalType": "address",
          "name": "",
          "type": "address"
        }
      ],
      "stateMutability": "view",
      "type": "function"
    },
    {
      "inputs": [
        {
          "internalType": "uint256",
          "name": "tokenId",
          "type": "uint256"
        }
      ],
      "name": "ownerOf",
      "outputs": [
        {
          "internalType": "address",
          "name": "",
          "type": "address"
        }
      ],
      "stateMutability": "view",
      "type": "function"
    },
    {
      "inputs": [],
      "name": "postCount",
      "outputs": [
        {
          "internalType": "uint256",
          "name": "",
          "type": "uint256"
        }
      ],
      "stateMutability": "view",
      "type": "function"
    },
    {
      "inputs": [
        {
          "internalType": "uint256",
          "name": "",
          "type": "uint256"
        }
      ],
      "name": "posts",
      "outputs": [
        {
          "internalType": "uint256",
          "name": "id",
          "type": "uint256"
        },
        {
          "internalType": "address",
          "name": "author",
          "type": "address"
        },
        {
          "internalType": "string",
          "name": "ipfsHash",
          "type": "string"
        },
        {
          "internalType": "uint256",
          "name": "createdAt",
          "type": "uint256"
        },
        {
          "internalType": "uint256",
          "name": "likes",
          "type": "uint256"
        },
        {
          "internalType": "uint256",
          "name": "reposts",
          "type": "uint256"
        },
        {
          "internalType": "uint256",
          "name": "commentCount",
          "type": "uint256"
        },
        {
          "internalType": "bool",
          "name": "isDeleted",
          "type": "bool"
        },
        {
          "internalType": "enum SocioChain.PostType",
          "name": "postType",
          "type": "uint8"
        },
        {
          "internalType": "uint256",
          "name": "parentId",
          "type": "uint256"
        }
      ],
      "stateMutability": "view",
      "type": "function"
    },
    {
      "inputs": [],
      "name": "profileNFTCount",
      "outputs": [
        {
          "internalType": "uint256",
          "name": "",
          "type": "uint256"
        }
      ],
      "stateMutability": "view",
      "type": "function"
    },
    {
      "inputs": [
        {
          "internalType": "address",
          "name": "",
          "type": "address"
        }
      ],
      "name": "profileTokenId",
      "outputs": [
        {
          "internalType": "uint256",
          "name": "",
          "type": "uint256"
        }
      ],
      "stateMutability": "view",
      "type": "function"
    },
    {
      "inputs": [
        {
          "internalType": "address",
          "name": "",
          "type": "address"
        }
      ],
      "name": "profiles",
      "outputs": [
        {
          "internalType": "address",
          "name": "wallet",
          "type": "address"
        },
        {
          "internalType": "string",
          "name": "ipfsHash",
          "type": "string"
        },
        {
          "internalType": "uint256",
          "name": "createdAt",
          "type": "uint256"
        },
        {
          "internalType": "uint256",
          "name": "postCount",
          "type": "uint256"
        },
        {
          "internalType": "uint256",
          "name": "followerCount",
          "type": "uint256"
        },
        {
          "internalType": "uint256",
          "name": "followingCount",
          "type": "uint256"
        },
        {
          "internalType": "bool",
          "name": "exists",
          "type": "bool"
        },
        {
          "internalType": "bool",
          "name": "verified",
          "type": "bool"
        }
      ],
      "stateMutability": "view",
      "type": "function"
    },
    {
      "inputs": [],
      "name": "renounceOwnership",
      "outputs": [],
      "stateMutability": "nonpayable",
      "type": "function"
    },
    {
      "inputs": [
        {
          "internalType": "address",
          "name": "_accessor",
          "type": "address"
        }
      ],
      "name": "revokeDataPermission",
      "outputs": [],
      "stateMutability": "nonpayable",
      "type": "function"
    },
    {
      "inputs": [
        {
          "internalType": "address",
          "name": "from",
          "type": "address"
        },
        {
          "internalType": "address",
          "name": "to",
          "type": "address"
        },
        {
          "internalType": "uint256",
          "name": "tokenId",
          "type": "uint256"
        }
      ],
      "name": "safeTransferFrom",
      "outputs": [],
      "stateMutability": "nonpayable",
      "type": "function"
    },
    {
      "inputs": [
        {
          "internalType": "address",
          "name": "from",
          "type": "address"
        },
        {
          "internalType": "address",
          "name": "to",
          "type": "address"
        },
        {
          "internalType": "uint256",
          "name": "tokenId",
          "type": "uint256"
        },
        {
          "internalType": "bytes",
          "name": "data",
          "type": "bytes"
        }
      ],
      "name": "safeTransferFrom",
      "outputs": [],
      "stateMutability": "nonpayable",
      "type": "function"
    },
    {
      "inputs": [
        {
          "internalType": "address",
          "name": "operator",
          "type": "address"
        },
        {
          "internalType": "bool",
          "name": "approved",
          "type": "bool"
        }
      ],
      "name": "setApprovalForAll",
      "outputs": [],
      "stateMutability": "nonpayable",
      "type": "function"
    },
    {
      "inputs": [
        {
          "internalType": "address",
          "name": "_token",
          "type": "address"
        }
      ],
      "name": "setSocToken",
      "outputs": [],
      "stateMutability": "nonpayable",
      "type": "function"
    },
    {
      "inputs": [],
      "name": "socTokenAddress",
      "outputs": [
        {
          "internalType": "address",
          "name": "",
          "type": "address"
        }
      ],
      "stateMutability": "view",
      "type": "function"
    },
    {
      "inputs": [
        {
          "internalType": "bytes4",
          "name": "interfaceId",
          "type": "bytes4"
        }
      ],
      "name": "supportsInterface",
      "outputs": [
        {
          "internalType": "bool",
          "name": "",
          "type": "bool"
        }
      ],
      "stateMutability": "view",
      "type": "function"
    },
    {
      "inputs": [],
      "name": "symbol",
      "outputs": [
        {
          "internalType": "string",
          "name": "",
          "type": "string"
        }
      ],
      "stateMutability": "view",
      "type": "function"
    },
    {
      "inputs": [
        {
          "internalType": "uint256",
          "name": "_postId",
          "type": "uint256"
        }
      ],
      "name": "toggleLike",
      "outputs": [],
      "stateMutability": "nonpayable",
      "type": "function"
    },
    {
      "inputs": [
        {
          "internalType": "uint256",
          "name": "tokenId",
          "type": "uint256"
        }
      ],
      "name": "tokenURI",
      "outputs": [
        {
          "internalType": "string",
          "name": "",
          "type": "string"
        }
      ],
      "stateMutability": "view",
      "type": "function"
    },
    {
      "inputs": [
        {
          "internalType": "address",
          "name": "from",
          "type": "address"
        },
        {
          "internalType": "address",
          "name": "to",
          "type": "address"
        },
        {
          "internalType": "uint256",
          "name": "tokenId",
          "type": "uint256"
        }
      ],
      "name": "transferFrom",
      "outputs": [],
      "stateMutability": "nonpayable",
      "type": "function"
    },
    {
      "inputs": [
        {
          "internalType": "address",
          "name": "newOwner",
          "type": "address"
        }
      ],
      "name": "transferOwnership",
      "outputs": [],
      "stateMutability": "nonpayable",
      "type": "function"
    },
    {
      "inputs": [
        {
          "internalType": "address",
          "name": "_target",
          "type": "address"
        }
      ],
      "name": "unfollow",
      "outputs": [],
      "stateMutability": "nonpayable",
      "type": "function"
    },
    {
      "inputs": [
        {
          "internalType": "string",
          "name": "_ipfsHash",
          "type": "string"
        }
      ],
      "name": "updateProfile",
      "outputs": [],
      "stateMutability": "nonpayable",
      "type": "function"
    },
    {
      "inputs": [
        {
          "internalType": "address",
          "name": "_wallet",
          "type": "address"
        }
      ],
      "name": "verifyProfile",
      "outputs": [],
      "stateMutability": "nonpayable",
      "type": "function"
    }
  ],
  "bytecode": "0x608060405234801561000f575f5ffd5b506040805180820182526012815271536f63696f436861696e2050726f66696c6560701b6020808301919091528251808401909352600483526344534f4360e01b9083015290338061007a57604051631e4fbdf760e01b81525f600482015260240160405180910390fd5b610083816100c9565b5060017f9b779b17422d0df92223018b32b4d1fa46e071723d6817e2486d003becc55f005560016100b483826101b0565b5060026100c182826101b0565b50505061026a565b5f80546001600160a01b038381166001600160a01b0319831681178455604051919092169283917f8be0079c531659141344cd1fd0a4f28419497f9722a3daafe3b4186f6b6457e09190a35050565b634e487b7160e01b5f52604160045260245ffd5b600181811c9082168061014057607f821691505b60208210810361015e57634e487b7160e01b5f52602260045260245ffd5b50919050565b601f8211156101ab57805f5260205f20601f840160051c810160208510156101895750805b601f840160051c820191505b818110156101a8575f8155600101610195565b50505b505050565b81516001600160401b038111156101c9576101c9610118565b6101dd816101d7845461012c565b84610164565b6020601f82116001811461020f575f83156101f85750848201515b5f19600385901b1c1916600184901b1784556101a8565b5f84815260208120601f198516915b8281101561023e578785015182556020948501946001909201910161021e565b508482101561025b57868401515f19600387901b60f8161c191681555b50505050600190811b01905550565b6137f1806102775f395ff3fe608060405234801561000f575f5ffd5b50600436106102fe575f3560e01c8063667c767911610195578063b5e7854e116100e4578063ce9ae0011161009e578063e985e9c511610079578063e985e9c5146107f6578063eed02e4b14610809578063f2fde38b1461081c578063fb8949cd1461082f575f5ffd5b8063ce9ae00114610789578063dbc7470d146107b6578063dfaef659146107e3575f5ffd5b8063b5e7854e146106e9578063b88d4fde146106fc578063bbe156271461070f578063be5b02ff14610736578063c87b56dd14610763578063c8b472d914610776575f5ffd5b80638f23b3261161014f57806399ec3a421161012a57806399ec3a4214610675578063a0f5b87b146106b0578063a22cb465146106c3578063a30013e1146106d6575f5ffd5b80638f23b3261461063e57806395d89b411461064757806396324bd41461064f575f5ffd5b8063667c7679146105ef57806369968f39146105f85780636c69cc5e1461060057806370a0823114610613578063715018a6146106265780638da5cb5b1461062e575f5ffd5b806323b872dd1161025157806342842e0e1161020b5780634dbf27cc116101e65780634dbf27cc1461058957806354398d181461059c5780635a2fecf0146105af5780636352211e146105dc575f5ffd5b806342842e0e1461051c57806343c9f97a1461052f5780634c6668a314610552575f5ffd5b806323b872dd1461047757806333471df51461048a578063334c3f0e1461049d57806339e335f2146104b05780633d954405146104dd57806340731c24146104fc575f5ffd5b8063094cd5ee116102bc5780630f53a470116102975780630f53a4701461040e57806310437e5a1461042e578063160dbc471461044157806317906c2e1461046e575f5ffd5b8063094cd5ee146103bf578063095ea7b3146103d25780630b1e7f83146103e5575f5ffd5b80629299e314610302578063015a4ead1461031757806301ffc9a71461032a57806302c427871461035257806306fdde031461037f578063081812fc14610394575b5f5ffd5b610315610310366004612e3f565b610842565b005b610315610325366004612e99565b6108fe565b61033d610338366004612ec7565b610a3d565b60405190151581526020015b60405180910390f35b61033d610360366004612ee2565b600b60209081525f928352604080842090915290825290205460ff1681565b610387610a8e565b6040516103499190612f3a565b6103a76103a2366004612f4c565b610b1e565b6040516001600160a01b039091168152602001610349565b6103156103cd366004612f4c565b610b45565b6103156103e0366004612f63565b610c3a565b6103f86103f3366004612f4c565b610c49565b6040516103499a99989796959493929190612fbf565b61042161041c366004612e99565b610d2f565b604051610349919061302f565b61031561043c366004612e99565b610e8e565b61046061044f366004612f4c565b600e6020525f908152604090205481565b604051908152602001610349565b61046060115481565b6103156104853660046130a8565b610eb8565b610315610498366004612f4c565b610f41565b6103156104ab366004612e3f565b611005565b61033d6104be366004612ee2565b600f60209081525f928352604080842090915290825290205460ff1681565b6104606104eb366004612e99565b60146020525f908152604090205481565b61050f61050a366004612f4c565b61120b565b60405161034991906130e2565b61031561052a3660046130a8565b611359565b61033d61053d366004612f4c565b5f908152600e6020526040902054600a111590565b61033d610560366004612f63565b5f908152600b602090815260408083206001600160a01b03949094168352929052205460ff1690565b610315610597366004612e99565b611378565b6103156105aa366004612f4c565b61154d565b61033d6105bd366004612ee2565b600c60209081525f928352604080842090915290825290205460ff1681565b6103a76105ea366004612f4c565b611727565b61046060135481565b610460600a81565b6015546103a7906001600160a01b031681565b610460610621366004612e99565b611731565b610315611776565b5f546001600160a01b03166103a7565b61046060125481565b610387611789565b61066261065d366004612f4c565b611798565b604051610349979695949392919061318e565b61033d6106833660046131e9565b6001600160a01b039182165f908152600a6020908152604080832093909416825291909152205460ff1690565b6104606106be366004613211565b6118ee565b6103156106d136600461327c565b611c93565b6104606106e43660046132a4565b611c9e565b6103156106f7366004612e99565b611ef7565b61031561070a366004613338565b611f4c565b61072261071d366004612e99565b611f64565b604051610349989796959493929190613415565b61033d6107443660046131e9565b601060209081525f928352604080842090915290825290205460ff1681565b610387610771366004612f4c565b61203b565b610315610784366004612f4c565b6120ac565b61033d6107973660046131e9565b600a60209081525f928352604080842090915290825290205460ff1681565b61033d6107c4366004612ee2565b600d60209081525f928352604080842090915290825290205460ff1681565b6103156107f1366004612e99565b61224e565b61033d6108043660046131e9565b6122bb565b610315610817366004612f4c565b6122e8565b61031561082a366004612e99565b612496565b61031561083d366004612e99565b6124d3565b335f8181526007602052604090206006015460ff1661087c5760405162461bcd60e51b81526004016108739061346f565b60405180910390fd5b816108995760405162461bcd60e51b81526004016108739061349f565b335f9081526007602052604090206001016108b5838583613547565b50336001600160a01b03167fdd635a4cd84864e37e4479dbfc2ec667acfa473c83c8422a8ac9d9d07599b01c84846040516108f1929190613601565b60405180910390a2505050565b335f8181526007602052604090206006015460ff1661092f5760405162461bcd60e51b81526004016108739061346f565b335f908152600a602090815260408083206001600160a01b038616845290915290205460ff166109915760405162461bcd60e51b815260206004820152600d60248201526c4e6f7420666f6c6c6f77696e6760981b6044820152606401610873565b335f818152600a602090815260408083206001600160a01b03871684528252808320805460ff19169055928252600790529081206005018054916109d483613643565b90915550506001600160a01b0382165f9081526007602052604081206004018054916109ff83613643565b90915550506040516001600160a01b0383169033907f25b48012798806863072289354ed0b3849b73152482d9c6694e5cbb35f38d5e3905f90a35050565b5f6001600160e01b031982166380ac58cd60e01b1480610a6d57506001600160e01b03198216635b5e139f60e01b145b80610a8857506301ffc9a760e01b6001600160e01b03198316145b92915050565b606060018054610a9d906134cb565b80601f0160208091040260200160405190810160405280929190818152602001828054610ac9906134cb565b8015610b145780601f10610aeb57610100808354040283529160200191610b14565b820191905f5260205f20905b815481529060010190602001808311610af757829003601f168201915b5050505050905090565b5f610b28826125b5565b505f828152600560205260409020546001600160a01b0316610a88565b5f818152600860205260409020600101546001600160a01b03163314610b9f5760405162461bcd60e51b815260206004820152600f60248201526e2737ba103837b9ba1030baba3437b960891b6044820152606401610873565b5f8181526008602052604090206007015460ff1615610bf25760405162461bcd60e51b815260206004820152600f60248201526e105b1c9958591e4819195b195d1959608a1b6044820152606401610873565b5f81815260086020526040808220600701805460ff1916600117905551339183917f1da4a15b15417b54b8b3bea2ca87cfc4c94f0fee7d86702d0dab9e2906e7a7d39190a350565b610c458282336125ed565b5050565b60086020525f908152604090208054600182015460028301805492936001600160a01b0390921692610c7a906134cb565b80601f0160208091040260200160405190810160405280929190818152602001828054610ca6906134cb565b8015610cf15780601f10610cc857610100808354040283529160200191610cf1565b820191905f5260205f20905b815481529060010190602001808311610cd457829003601f168201915b50505060038401546004850154600586015460068701546007880154600890980154969793969295509093509160ff8082169261010090920416908a565b610d7d6040518061010001604052805f6001600160a01b03168152602001606081526020015f81526020015f81526020015f81526020015f81526020015f151581526020015f151581525090565b6001600160a01b038083165f90815260076020908152604091829020825161010081019093528054909316825260018301805492939291840191610dc0906134cb565b80601f0160208091040260200160405190810160405280929190818152602001828054610dec906134cb565b8015610e375780601f10610e0e57610100808354040283529160200191610e37565b820191905f5260205f20905b815481529060010190602001808311610e1a57829003601f168201915b50505091835250506002820154602082015260038201546040820152600482015460608201526005820154608082015260069091015460ff808216151560a084015261010090910416151560c09091015292915050565b610e966125fa565b601580546001600160a01b0319166001600160a01b0392909216919091179055565b6001600160a01b038216610ee157604051633250574960e11b81525f6004820152602401610873565b5f610eed838333612626565b9050836001600160a01b0316816001600160a01b031614610f3b576040516364283d7b60e01b81526001600160a01b0380861660048301526024820184905282166044820152606401610873565b50505050565b5f818152600c6020908152604080832033845290915290205460ff16610f985760405162461bcd60e51b815260206004820152600c60248201526b2737ba10309036b2b6b132b960a11b6044820152606401610873565b5f818152600c602090815260408083203384528252808320805460ff1916905583835260099091528120600401805491610fd183613643565b9091555050604051339082907f136090f261f016cc705317a2744c016a5d5c0ac8dfe90a2b529614feb68c4e9d905f90a350565b335f9081526007602052604090206006015460ff16156110605760405162461bcd60e51b815260206004820152601660248201527550726f66696c6520616c72656164792065786973747360501b6044820152606401610873565b8061107d5760405162461bcd60e51b81526004016108739061349f565b604051806101000160405280336001600160a01b0316815260200183838080601f0160208091040260200160405190810160405280939291908181526020018383808284375f92018290525093855250504260208085019190915260408085018490526060850184905260808501849052600160a0860181905260c090950184905233845260078252909220845181546001600160a01b0319166001600160a01b03909116178155918401519192830191611139915082613658565b5060408201516002820155606082015160038201556080820151600482015560a0820151600582015560c08201516006909101805460e09093015115156101000261ff00199215159290921661ffff199093169290921717905560138054905f6111a283613713565b9091555050601354335f8181526014602052604090208290556111c49161269f565b336001600160a01b03167fbafddecbd1dec1c1afb76d693f1de16901f521bdf29a02438e3e6806c0b8d94883836040516111ff929190613601565b60405180910390a25050565b611213612d94565b5f828152600860209081526040918290208251610140810184528154815260018201546001600160a01b031692810192909252600281018054929391929184019161125d906134cb565b80601f0160208091040260200160405190810160405280929190818152602001828054611289906134cb565b80156112d45780601f106112ab576101008083540402835291602001916112d4565b820191905f5260205f20905b8154815290600101906020018083116112b757829003601f168201915b505050918352505060038201546020820152600482015460408201526005820154606082015260068201546080820152600782015460ff808216151560a084015260c09092019161010090910416600281111561133357611333612f8b565b600281111561134457611344612f8b565b81526020016008820154815250509050919050565b61137383838360405180602001604052805f815250611f4c565b505050565b335f8181526007602052604090206006015460ff166113a95760405162461bcd60e51b81526004016108739061346f565b6001600160a01b0382165f90815260076020526040902060060154829060ff166113e55760405162461bcd60e51b81526004016108739061346f565b6001600160a01b03831633036114365760405162461bcd60e51b815260206004820152601660248201527521b0b73737ba103337b63637bb903cb7bab939b2b63360511b6044820152606401610873565b335f908152600a602090815260408083206001600160a01b038716845290915290205460ff161561149d5760405162461bcd60e51b8152602060048201526011602482015270416c726561647920666f6c6c6f77696e6760781b6044820152606401610873565b335f818152600a602090815260408083206001600160a01b03881684528252808320805460ff19166001179055928252600790529081206005018054916114e383613713565b90915550506001600160a01b0383165f90815260076020526040812060040180549161150e83613713565b90915550506040516001600160a01b0384169033907f6178e95c138f06036cdc07a49ed6a3d23008969fa143baeceb037ebae22e8d14905f90a3505050565b805f8111801561155f57506011548111155b6115a15760405162461bcd60e51b8152602060048201526013602482015272141bdcdd08191bd95cc81b9bdd08195e1a5cdd606a1b6044820152606401610873565b5f8181526008602052604090206007015460ff16156115f45760405162461bcd60e51b815260206004820152600f60248201526e141bdcdd081a5cc819195b195d1959608a1b6044820152606401610873565b335f8181526007602052604090206006015460ff166116255760405162461bcd60e51b81526004016108739061346f565b5f838152600b6020908152604080832033845290915290205460ff16156116b5575f838152600b602090815260408083203384528252808320805460ff191690558583526008909152812060040180549161167f83613643565b9091555050604051339084907f82092d1196022c48d901e5dc4b17451dbce942b8a9ded42fc6f2a4a5e8fd89b9905f90a3505050565b5f838152600b602090815260408083203384528252808320805460ff19166001179055858352600890915281206004018054916116f183613713565b9091555050604051339084907fcf765d6f163c9b0d832e2a94f4c8e9bffd32a2c3ca5fdbb8cc67b5fe1441f413905f90a3505050565b5f610a88826125b5565b5f6001600160a01b03821661175b576040516322718ad960e21b81525f6004820152602401610873565b506001600160a01b03165f9081526004602052604090205490565b61177e6125fa565b6117875f6126b8565b565b606060028054610a9d906134cb565b60096020525f908152604090208054600182015460028301805492936001600160a01b03909216926117c9906134cb565b80601f01602080910402602001604051908101604052809291908181526020018280546117f5906134cb565b80156118405780601f1061181757610100808354040283529160200191611840565b820191905f5260205f20905b81548152906001019060200180831161182357829003601f168201915b505050505090806003018054611855906134cb565b80601f0160208091040260200160405190810160405280929190818152602001828054611881906134cb565b80156118cc5780601f106118a3576101008083540402835291602001916118cc565b820191905f5260205f20905b8154815290600101906020018083116118af57829003601f168201915b50505050600483015460058401546006909401549293909260ff909116915087565b335f8181526007602052604081206006015490919060ff166119225760405162461bcd60e51b81526004016108739061346f565b8461193f5760405162461bcd60e51b81526004016108739061349f565b600184600281111561195357611953612f8b565b14806119705750600284600281111561196e5761196e612f8b565b145b15611a18575f8311801561198657506011548311155b6119c35760405162461bcd60e51b815260206004820152600e60248201526d125b9d985b1a59081c185c995b9d60921b6044820152606401610873565b5f8381526008602052604090206007015460ff1615611a185760405162461bcd60e51b815260206004820152601160248201527014185c995b9d081a5cc819195b195d1959607a1b6044820152606401610873565b60118054905f611a2783613713565b91905055506040518061014001604052806011548152602001336001600160a01b0316815260200187878080601f0160208091040260200160405190810160405280939291908181526020018383808284375f92018290525093855250504260208401525060408201819052606082018190526080820181905260a082015260c001856002811115611abb57611abb612f8b565b815260209081018590526011545f9081526008825260409081902083518155918301516001830180546001600160a01b0319166001600160a01b039092169190911790558201516002820190611b119082613658565b50606082015160038201556080820151600482015560a0820151600582015560c0820151600682015560e082015160078201805491151560ff19831681178255610100808601519361ff001990921661ffff199092169190911790836002811115611b7e57611b7e612f8b565b02179055506101209190910151600890910155335f908152600760205260408120600301805491611bae83613713565b9091555060019050846002811115611bc857611bc8612f8b565b148015611bd457505f83115b15611bfb575f838152600860205260408120600601805491611bf583613713565b91905055505b6002846002811115611c0f57611c0f612f8b565b148015611c1b57505f83115b15611c42575f838152600860205260408120600501805491611c3c83613713565b91905055505b336001600160a01b03166011547f21a9b94fe7c095a895c921635edec8aa82b75a232dbb9b1db98a91f5471d36d886604051611c7e919061372b565b60405180910390a35050601154949350505050565b610c45338383612707565b335f8181526007602052604081206006015490919060ff16611cd25760405162461bcd60e51b81526004016108739061346f565b85611d0f5760405162461bcd60e51b815260206004820152600d60248201526c13985b59481c995c5d5a5c9959609a1b6044820152606401610873565b60128054905f611d1e83613713565b91905055506040518060e001604052806012548152602001336001600160a01b0316815260200188888080601f0160208091040260200160405190810160405280939291908181526020018383808284375f92019190915250505090825250604080516020601f8901819004810282018101909252878152918101919088908890819084018382808284375f9201829052509385525050600160208085018290528815156040808701919091524260609096019590955260125484526009815292849020855181559285015190830180546001600160a01b0319166001600160a01b0390921691909117905550908201516002820190611e1e9082613658565b5060608201516003820190611e339082613658565b506080820151600482015560a082015160058201805491151560ff1992831617905560c090920151600690910155601280545f908152600c602090815260408083203380855290835281842080548716600190811790915585548552600d8452828520828652909352928190208054909516909117909355905491519091907f4354295f5d98820e66a770bd58cf23606ab255dd9dc2daf870fab38ecbc3e7e090611ee1908b908b90613601565b60405180910390a3505060125495945050505050565b335f8181526010602090815260408083206001600160a01b0386168085529252808320805460ff19169055519092917f6d212dae3b8456b423dadb232e1329e32afa2d2473115206da60fd9ebcce04be91a350565b611f57848484610eb8565b610f3b33858585856127ce565b60076020525f9081526040902080546001820180546001600160a01b039092169291611f8f906134cb565b80601f0160208091040260200160405190810160405280929190818152602001828054611fbb906134cb565b80156120065780601f10611fdd57610100808354040283529160200191612006565b820191905f5260205f20905b815481529060010190602001808311611fe957829003601f168201915b505050600284015460038501546004860154600587015460069097015495969295919450925060ff8082169161010090041688565b6060612046826125b5565b505f61205c60408051602081019091525f815290565b90505f81511161207a5760405180602001604052805f8152506120a5565b80612084846128f6565b604051602001612095929190613750565b6040516020818303038152906040525b9392505050565b805f811180156120be57506011548111155b6121005760405162461bcd60e51b8152602060048201526013602482015272141bdcdd08191bd95cc81b9bdd08195e1a5cdd606a1b6044820152606401610873565b5f8181526008602052604090206007015460ff16156121535760405162461bcd60e51b815260206004820152600f60248201526e141bdcdd081a5cc819195b195d1959608a1b6044820152606401610873565b335f8181526007602052604090206006015460ff166121845760405162461bcd60e51b81526004016108739061346f565b5f838152600f6020908152604080832033845290915290205460ff16156121df5760405162461bcd60e51b815260206004820152600f60248201526e105b1c9958591e48199b1859d9d959608a1b6044820152606401610873565b5f838152600f602090815260408083203384528252808320805460ff19166001179055858352600e909152812080549161221883613713565b9091555050604051339084907fec46b91e2919a8b607341f3527c47fc1c577c6f9591568642e365b01bbc4bb15905f90a3505050565b6122566125fa565b6001600160a01b0381165f90815260076020526040902060060154819060ff166122925760405162461bcd60e51b81526004016108739061346f565b506001600160a01b03165f908152600760205260409020600601805461ff001916610100179055565b6001600160a01b039182165f90815260066020908152604080832093909416825291909152205460ff1690565b335f8181526007602052604090206006015460ff166123195760405162461bcd60e51b81526004016108739061346f565b5f8211801561232a57506012548211155b6123685760405162461bcd60e51b815260206004820152600f60248201526e11dc9bdd5c081b9bdd08199bdd5b99608a1b6044820152606401610873565b5f8281526009602052604090206005015460ff16156123c95760405162461bcd60e51b815260206004820152601c60248201527f507269766174652067726f7570202d206e6565647320696e76697465000000006044820152606401610873565b5f828152600c6020908152604080832033845290915290205460ff16156124255760405162461bcd60e51b815260206004820152601060248201526f20b63932b0b23c90309036b2b6b132b960811b6044820152606401610873565b5f828152600c602090815260408083203384528252808320805460ff191660011790558483526009909152812060040180549161246183613713565b9091555050604051339083907fd03db82dc444e57ced39bbfddd929cfb91ec69f995e60c4d0e71d4ccad7493a3905f90a35050565b61249e6125fa565b6001600160a01b0381166124c757604051631e4fbdf760e01b81525f6004820152602401610873565b6124d0816126b8565b50565b335f8181526007602052604090206006015460ff166125045760405162461bcd60e51b81526004016108739061346f565b336001600160a01b0383160361255c5760405162461bcd60e51b815260206004820152601860248201527f43616e6e6f74206772616e7420746f20796f757273656c6600000000000000006044820152606401610873565b335f8181526010602090815260408083206001600160a01b0387168085529252808320805460ff19166001179055519092917fdd05da41b52afc612ea00d011074f8672de0cd78c50785d456ebd678683c263c91a35050565b5f818152600360205260408120546001600160a01b031680610a8857604051637e27328960e01b815260048101849052602401610873565b6113738383836001612987565b5f546001600160a01b031633146117875760405163118cdaa760e01b8152336004820152602401610873565b5f828152600360205260408120546001600160a01b0316801561268b5760405162461bcd60e51b815260206004820152601860248201527f50726f66696c65204e465420697320736f756c626f756e6400000000000000006044820152606401610873565b612696858585612a8b565b95945050505050565b610c45828260405180602001604052805f815250612b7d565b5f80546001600160a01b038381166001600160a01b0319831681178455604051919092169283917f8be0079c531659141344cd1fd0a4f28419497f9722a3daafe3b4186f6b6457e09190a35050565b6001600160a01b0383166127305760405163a9fbf51f60e01b81525f6004820152602401610873565b6001600160a01b03821661276257604051630b61174360e31b81526001600160a01b0383166004820152602401610873565b6001600160a01b038381165f81815260066020908152604080832094871680845294825291829020805460ff191686151590811790915591519182527f17307eab39ab6107e8899845ad3d59bd9653f200f220920489ca2b5937696c31910160405180910390a3505050565b6001600160a01b0383163b156128ef57604051630a85bd0160e11b81526001600160a01b0384169063150b7a0290612810908890889087908790600401613764565b6020604051808303815f875af192505050801561284a575060408051601f3d908101601f19168201909252612847918101906137a0565b60015b6128b1573d808015612877576040519150601f19603f3d011682016040523d82523d5f602084013e61287c565b606091505b5080515f036128a957604051633250574960e11b81526001600160a01b0385166004820152602401610873565b805160208201fd5b6001600160e01b03198116630a85bd0160e11b146128ed57604051633250574960e11b81526001600160a01b0385166004820152602401610873565b505b5050505050565b60605f61290283612b94565b60010190505f8167ffffffffffffffff81111561292157612921613324565b6040519080825280601f01601f19166020018201604052801561294b576020820181803683370190505b5090508181016020015b5f19016f181899199a1a9b1b9c1cb0b131b232b360811b600a86061a8153600a8504945084612955575b509392505050565b808061299b57506001600160a01b03821615155b15612a5c575f6129aa846125b5565b90506001600160a01b038316158015906129d65750826001600160a01b0316816001600160a01b031614155b80156129e957506129e781846122bb565b155b15612a125760405163a9fbf51f60e01b81526001600160a01b0384166004820152602401610873565b8115612a5a5783856001600160a01b0316826001600160a01b03167f8c5be1e5ebec7d5bd14f71427d1e84f3dd0314c0f7b2291e5b200ac8c7c3b92560405160405180910390a45b505b50505f90815260056020526040902080546001600160a01b0319166001600160a01b0392909216919091179055565b5f828152600360205260408120546001600160a01b0390811690831615612ab757612ab7818486612c6b565b6001600160a01b03811615612af157612ad25f855f5f612987565b6001600160a01b0381165f90815260046020526040902080545f190190555b6001600160a01b03851615612b1f576001600160a01b0385165f908152600460205260409020805460010190555b5f8481526003602052604080822080546001600160a01b0319166001600160a01b0389811691821790925591518793918516917fddf252ad1be2c89b69c2b068fc378daa952ba7f163c4a11628f55a4df523b3ef91a4949350505050565b612b878383612ccf565b611373335f8585856127ce565b5f8072184f03e93ff9f4daa797ed6e38ed64bf6a1f0160401b8310612bd25772184f03e93ff9f4daa797ed6e38ed64bf6a1f0160401b830492506040015b6d04ee2d6d415b85acef81000000008310612bfe576d04ee2d6d415b85acef8100000000830492506020015b662386f26fc100008310612c1c57662386f26fc10000830492506010015b6305f5e1008310612c34576305f5e100830492506008015b6127108310612c4857612710830492506004015b60648310612c5a576064830492506002015b600a8310610a885760010192915050565b612c76838383612d30565b611373576001600160a01b038316612ca457604051637e27328960e01b815260048101829052602401610873565b60405163177e802f60e01b81526001600160a01b038316600482015260248101829052604401610873565b6001600160a01b038216612cf857604051633250574960e11b81525f6004820152602401610873565b5f612d0483835f612626565b90506001600160a01b03811615611373576040516339e3563760e11b81525f6004820152602401610873565b5f6001600160a01b03831615801590612d8c5750826001600160a01b0316846001600160a01b03161480612d695750612d6984846122bb565b80612d8c57505f828152600560205260409020546001600160a01b038481169116145b949350505050565b6040518061014001604052805f81526020015f6001600160a01b03168152602001606081526020015f81526020015f81526020015f81526020015f81526020015f151581526020015f6002811115612dee57612dee612f8b565b81526020015f81525090565b5f5f83601f840112612e0a575f5ffd5b50813567ffffffffffffffff811115612e21575f5ffd5b602083019150836020828501011115612e38575f5ffd5b9250929050565b5f5f60208385031215612e50575f5ffd5b823567ffffffffffffffff811115612e66575f5ffd5b612e7285828601612dfa565b90969095509350505050565b80356001600160a01b0381168114612e94575f5ffd5b919050565b5f60208284031215612ea9575f5ffd5b6120a582612e7e565b6001600160e01b0319811681146124d0575f5ffd5b5f60208284031215612ed7575f5ffd5b81356120a581612eb2565b5f5f60408385031215612ef3575f5ffd5b82359150612f0360208401612e7e565b90509250929050565b5f81518084528060208401602086015e5f602082860101526020601f19601f83011685010191505092915050565b602081525f6120a56020830184612f0c565b5f60208284031215612f5c575f5ffd5b5035919050565b5f5f60408385031215612f74575f5ffd5b612f7d83612e7e565b946020939093013593505050565b634e487b7160e01b5f52602160045260245ffd5b60038110612fbb57634e487b7160e01b5f52602160045260245ffd5b9052565b8a81526001600160a01b038a166020820152610140604082018190525f90612fe99083018b612f0c565b90508860608301528760808301528660a08301528560c083015284151560e0830152613019610100830185612f9f565b826101208301529b9a5050505050505050505050565b602080825282516001600160a01b03168282015282015161010060408301525f9061305e610120840182612f0c565b90506040840151606084015260608401516080840152608084015160a084015260a084015160c084015260c0840151151560e084015260e084015161297f61010085018215159052565b5f5f5f606084860312156130ba575f5ffd5b6130c384612e7e565b92506130d160208501612e7e565b929592945050506040919091013590565b60208152815160208201525f602083015161310860408401826001600160a01b03169052565b5060408301516101406060840152613124610160840182612f0c565b905060608401516080840152608084015160a084015260a084015160c084015260c084015160e084015260e084015161316261010085018215159052565b50610100840151613177610120850182612f9f565b506101208401516101408401528091505092915050565b8781526001600160a01b038716602082015260e0604082018190525f906131b790830188612f0c565b82810360608401526131c98188612f0c565b6080840196909652505091151560a083015260c090910152949350505050565b5f5f604083850312156131fa575f5ffd5b61320383612e7e565b9150612f0360208401612e7e565b5f5f5f5f60608587031215613224575f5ffd5b843567ffffffffffffffff81111561323a575f5ffd5b61324687828801612dfa565b90955093505060208501356003811061325d575f5ffd5b9396929550929360400135925050565b80358015158114612e94575f5ffd5b5f5f6040838503121561328d575f5ffd5b61329683612e7e565b9150612f036020840161326d565b5f5f5f5f5f606086880312156132b8575f5ffd5b853567ffffffffffffffff8111156132ce575f5ffd5b6132da88828901612dfa565b909650945050602086013567ffffffffffffffff8111156132f9575f5ffd5b61330588828901612dfa565b909450925061331890506040870161326d565b90509295509295909350565b634e487b7160e01b5f52604160045260245ffd5b5f5f5f5f6080858703121561334b575f5ffd5b61335485612e7e565b935061336260208601612e7e565b925060408501359150606085013567ffffffffffffffff811115613384575f5ffd5b8501601f81018713613394575f5ffd5b803567ffffffffffffffff8111156133ae576133ae613324565b604051601f8201601f19908116603f0116810167ffffffffffffffff811182821017156133dd576133dd613324565b6040528181528282016020018910156133f4575f5ffd5b816020840160208301375f6020838301015280935050505092959194509250565b6001600160a01b0389168152610100602082018190525f906134399083018a612f0c565b6040830198909852506060810195909552608085019390935260a0840191909152151560c0830152151560e09091015292915050565b602080825260169082015275141c9bd99a5b1948191bd95cc81b9bdd08195e1a5cdd60521b604082015260600190565b60208082526012908201527112541194c81a185cda081c995c5d5a5c995960721b604082015260600190565b600181811c908216806134df57607f821691505b6020821081036134fd57634e487b7160e01b5f52602260045260245ffd5b50919050565b601f82111561137357805f5260205f20601f840160051c810160208510156135285750805b601f840160051c820191505b818110156128ef575f8155600101613534565b67ffffffffffffffff83111561355f5761355f613324565b6135738361356d83546134cb565b83613503565b5f601f8411600181146135a4575f851561358d5750838201355b5f19600387901b1c1916600186901b1783556128ef565b5f83815260208120601f198716915b828110156135d357868501358255602094850194600190920191016135b3565b50868210156135ef575f1960f88860031b161c19848701351681555b505060018560011b0183555050505050565b60208152816020820152818360408301375f818301604090810191909152601f909201601f19160101919050565b634e487b7160e01b5f52601160045260245ffd5b5f816136515761365161362f565b505f190190565b815167ffffffffffffffff81111561367257613672613324565b6136868161368084546134cb565b84613503565b6020601f8211600181146136b8575f83156136a15750848201515b5f19600385901b1c1916600184901b1784556128ef565b5f84815260208120601f198516915b828110156136e757878501518255602094850194600190920191016136c7565b508482101561370457868401515f19600387901b60f8161c191681555b50505050600190811b01905550565b5f600182016137245761372461362f565b5060010190565b60208101610a888284612f9f565b5f81518060208401855e5f93019283525090919050565b5f612d8c61375e8386613739565b84613739565b6001600160a01b03858116825284166020820152604081018390526080606082018190525f9061379690830184612f0c565b9695505050505050565b5f602082840312156137b0575f5ffd5b81516120a581612eb256fea264697066735822122035fff2989cf18eadee7f107aea2b17fdde8a41f9e92d1438b38d002b1ab8896764736f6c634300081c0033",
  "linkReferences": {},
  "deployedLinkReferences": {}
}